:020000040800F2
:10000000081B002055020008BF200008271D00081B
:10001000BD200008211C0008E922000800000000A3
:100020000000000000000000000000002F21000878
:100030008D1C000800000000C120000831210008CC
:100040006F0200086F0200086F0200086F020008CC
:100050006F0200086F0200086F0200086F020008BC
:100060006F0200086F0200086F0200086F020008AC
:100070006F0200086F0200086F0200086F0200089C
:100080006F0200086F0200086F0200086F0200088C
:100090006F0200086F0200086F0200086F0200087C
:1000A0006F0200086F0200086F0200086F0200086C
:1000B0006F0200086F0200086F0200086F0200085C
:1000C0006F0200086F0200086F0200086F0200084C
:1000D0006F020008392200086F0200086F02000852
:1000E0006F0200086F0200086F02000800000000A5
:1000F0000000000000000000000000000000000000
:100100006F02000800F002F800F090F80AA090E8F2
:10011000000C82448344AAF10107DA4501D100F0C2
:1001200085F8AFF2090EBAE80F0013F0010F18BFFF
:10013000FB1A43F0010318473C3000005C3000001C
:10014000103A24BF78C878C1FAD8520724BF30C803
:1001500030C144BF04680C607047000000230024D5
:1001600000250026103A28BF78C1FBD8520728BFC7
:1001700030C148BF0B6070476E2900F0858170293F
:1001800000F0C782662902F07387652902F0708744
:10019000672902F06D87612902F06C8703681B0AEA
:1001A00028BF41F08001692900F03281642900F004
:1001B0002F81752900F02C816F2900F05482782955
:1001C00000F09382E92900F0EF81E42900F0EC814E
:1001D000F52900F0E981EF2900F05182F82900F0BB
:1001E00092820368DB0928BF41F08001632900F097
:1001F0009587732900F09A87E32900F0A587F329F2
:1002000000F0AA87002070471FB500F0F7FF040038
:100210000020002102F016FF401C60600020002139
:1002200002F0FAFEE0601FBD10B510BD00F0B8FF8F
:100230001146FFF7E9FF02F0B9FB01F095F803B4AE
:10024000FFF7F2FF03BC01F0DDF8000080F308883F
:10025000704700000948804709480047FEE7FEE76D
:10026000FEE7FEE7FEE7FEE7FEE7FEE7FEE7FEE766
:1002700004480549054A064B70470000352100082F
:100280000501000808150020081B002008170020A1
:10029000081700201CB50C46064B7B4469460090AD
:1002A000204600F00AF904460020694600F018F9DB
:1002B00020461CBD4302000010B5431C02E010F8AC
:1002C000011B71B18107FAD14FF0013202C88C1ABB
:1002D0008C4314EAC211F9D0C01A0A0603D0C01E1A
:1002E00010BDC01A10BD0A0401D0801E10BD090245
:1002F000FCD0401E10BD4FF0000200B513469446DE
:100300009646203922BFA0E80C50A0E80C50B1F16D
:100310002001BFF4F7AF090728BFA0E80C5048BF81
:100320000CC05DF804EB890028BF40F8042B08BF1F
:10033000704748BF20F8022B11F0804F18BF00F81B
:10034000012B704770477047704770B50446856948
:100350000068C10601D5302600E02026C00707D07E
:1003600070BDD4E9012130469047206A401C2062CC
:100370006D1EF6D570BD70B5044685690078C0075E
:1003800007D170BDD4E9012120209047206A401C8C
:1003900020626D1EF6D570BD09684A0501D540B2D0
:1003A0007047C905FCD500B2704709684A0501D5F8
:1003B000C0B27047C905FCD580B2704770B50C4615
:1003C0000546012A05D02878800600D5EA69002371
:1003D00002E0012305E05B1C934202D2E05C0028AE
:1003E000F9D1A869E618C01AA861286A18442862D9
:1003F0002846FFF7AAFF04E0D5E9012114F8010B14
:100400009047B442F8D32846FFF7B5FF70BD00000F
:100410002DE9F0410646002410687529314616A5DD
:1004200010D0FFF7B9FF002802DA404213A507E019
:1004300031688A0701D512A502E0490704D511A544
:10044000012401E0FFF7B1FF00210A2206F1240791
:1004500009E0B0FBF2FCB0FBF2F302FB1C00303011
:1004600078541846491C0028F3D123462A463046C2
:10047000BDE8F04100F061BA000000002D0000006E
:100480002B0000002000000011680268006A53057C
:1004900001D508700AE0D30501D5088006E01306EF
:1004A00003D5C217C1E9000200E0086001207047CF
:1004B00001694A1C02610878704700B58FB0CDE928
:1004C00001310021059105497944CDE90310114618
:1004D000684600F029F90FB000BD0000E5FFFFFFFE
:1004E0000A6802F8010B0A60704700002DE9FF5FFF
:1004F00015468A460446DFF8AC80F8440027D8E960
:1005000000103E46CDE9001010E03AF816106A4699
:1005100002A800F025FE411C07D02178890603D5EA
:10052000E269391891420DD80744761C207880067C
:1005300002D5E069B84205DDAE42E6DB3AF81600C6
:100540000028E2D1A069C01BA0612046FFF7FDFE94
:10055000D8E90010CDE90010002017E03AF8181093
:100560006A4602A800F0FCFDB0F1FF3F81460BD0C7
:1005700000250DF1080B05E0D4E901211BF8050069
:1005800090476D1C4D45F7D308F10100B0428046FD
:10059000E4DB206A384420622046FFF7ECFEBDE829
:1005A000FF9F00007A2B00002DE9F0418046D21D0C
:1005B00022F007020025D2E90002F52915A614D081
:1005C000011E72F1000106DA0023D0EB030063EB99
:1005D000020211A608E0D8F800108B0701D50FA67B
:1005E00002E0490701D50EA601251146002408F1B5
:1005F000240704E000F05CF930323A55641C50EAFC
:100600000102F7D12B46324621464046BDE8F04173
:1006100000F093B9000000002D0000002B00000046
:100620002000000030B4002100F1240408E002F0B2
:100630000705D208303542EA4372DB086554491C8D
:1006400052EA0305F3D10468002310A2250707D559
:10065000A40600D421B1C46901230DA2641EC461A3
:1006600030BC00F06AB910B5044621461068FFF7A7
:100670009CFE02462046BDE810400023D2E7D21D72
:1006800022F00701D1E90023CCE7000000000000C0
:1006900030000000F0B40D460188090502D5214C58
:1006A0007C4402E01F4C7C440E34002100F12406FF
:1006B00008E002F00F071209E75D42EA03721B0926
:1006C0007754491C52EA0307F3D10278002312073A
:1006D00004D5702D06D009B1022311342246F0BC96
:1006E00000F02BB901231034F8E770B504460D462D
:1006F00021461068FFF759FE024629462046BDE80C
:1007000070400023C6E7D21D22F00703D3E900237F
:10071000C0E70368126843F0200303600823C36145
:100720000023B7E7DC2900002DE9F05F8946044685
:100730004FF0000ADFF874B1FB44C0F820A0204657
:10074000E1688847002874D0252806D0D4E9012123
:100750009047206A401C2062F1E700265F46204651
:10076000E16888472028054607DB312D05D2781936
:1007700010F8200C08B10643F1E7B00701D526F0C8
:100780000406C4F81CA00027C4F818A02A2D09D01C
:10079000284601F04DFE38B304EB8708303DC8F819
:1007A000185019E059F8041B204604EB87029161A8
:1007B000E1688847012F054618D1E069002820DA52
:1007C00026F020061DE0D8F8180000EB800005EBAD
:1007D00040003038C8F818002046E16888470546D0
:1007E00001F026FE0028EED1012F0AD02E2D08D1CF
:1007F0002046E16888477F1C0546022F46F0200608
:10080000C4DBA069002803DA404246F00106A0617B
:10081000F00701D026F010066C2D0BD0682D09D002
:100820004C2D39D06A2D35D0742D35D07A2D33D05A
:1008300016E038E0E1682F4620468847B842054672
:1008400009D16C2F26D04FF48060E1680643204622
:100850008847054604E06C2F1AD04FF48070064399
:100860000DB3A5F14100192802D8203546F40066E1
:100870004A462946204626604E46FFF77DFC80B159
:1008800001280BD0F61D26F0070000F1080956E7F5
:100890004020E4E78020D8E70020D6E706F10409ED
:1008A0004DE7284652E7206ABDE8F09F6C2900001A
:1008B00030B5B0F10A024FEA900E71F100034EEA32
:1008C000817EB0EB0E0061EB91014FEA101E4EEA03
:1008D000017E10EB0E0041EB11114FEA102E4EEA93
:1008E000016E10EB0E0041EB11214FEA104E4EEA63
:1008F000014E10EB0E0041EB1141401841F1000197
:100900004FEAD00040EA41704FEAD10110EB800578
:100910004FEA810444EA907444EB01046D1944EBFE
:100920000404521BA3414FF0000348BF0A3200D514
:1009300030BD401C41F1000130BD2DE9F0470D46AE
:1009400099469246044600F124080168880604D5B9
:10095000E06921F01001216000E00120A84201DDE2
:10096000471B00E00027A1697A1902EB0900081A69
:10097000A0612078C00602D42046FFF7E6FC0026DE
:1009800008E0D4E901211AF806009047206A401CCB
:10099000761C20624E45F4DB2078C0060AD520463E
:1009A000FFF7D3FC06E0D4E9012130209047206A0C
:1009B000401C2062381EA7F10107F4DC07E0D4E9EF
:1009C000012118F805009047206A401C2062281E6B
:1009D000A5F10105F3DC2046FFF7CDFC20780006E9
:1009E00002D50220BDE8F0870120FBE770472DE922
:1009F000FF4F0C461E464FF0FF378BB0D2E9000187
:100A0000DDF860800A908A46C1F30A5505B93D4673
:100A1000002108464FF00000BAF1000F00F440003A
:100A200005DA00EB80004FF4400101EA50004FEA84
:100A30009059B9F1010F00DDB9460A9850EA4A0011
:100A40000ED044F61050A5F2FF3545432F14B8F1EF
:100A5000000F1ED07542291E1EDDC9F100021CE0E8
:100A6000B8F1010F4FF0000001D0302103E0F24354
:100A700005E02154401CB042FBDB3046002200213F
:100A800021540B99C1F80880C1E900200FB0BDE8DE
:100A9000F08FBD1B6D1CDEE74A4600DA694206A8EE
:100AA00000F0F0FB06AB93E8070003AB83E8070018
:100AB00050460A9900F0ADFC8DE80700A0F5005003
:100AC0001F3800900398002D0ADD42F21F014A46AC
:100AD0000844002303A90390684600F016FF09E0CC
:100AE000A0F500504A461F38002303A9039068462A
:100AF00000F020FF8DE807000004000C03D04FF049
:100B0000FF30410800E01046B8F1000F03D000228A
:100B1000009215461EE0751E05D4FFF7C9FE30325F
:100B200062556D1EF9D5B3460122084302D000225A
:100B30007F1C04E02078302801D100227F1E002A8B
:100B4000099784D01DE0112D07DAFFF7B1FE30328E
:100B500062556D1C50EA0102F5D1084302D000989D
:100B6000C8B10EE00021681E05E0235C625C63549E
:100B70002254401E491C8142F7DBAB46A81B401E95
:100B80000990002004F80B000B98099AC0F808801F
:100B9000C0E9002B7AE711264FF0000857E72DE94E
:100BA000F04F88460446D21D22F0070191B0D1E9EA
:100BB0000001CDE90A0101F027FC02460B98C00FA5
:100BC00001D02D2007E02068810701D52B2002E00D
:100BD000202101EAC000032A099001D0072A05DB81
:100BE00003464146204600F00DFB0BE120788006CD
:100BF00001D5E06900E00620B8F1650F814606D016
:100C0000B8F1660F18D0B8F1670F70D131E000204D
:100C1000B9F1110F009001DB112301E009F101038B
:100C20000AAA01A90CA8FFF7E2FEDDE90C70002674
:100C300009F10105834647E001204B4600904FF043
:100C400000470AAA01A90CA8FFF7D1FEDDE90DB003
:100C50000C995D46002610B909F101000D18B9EB99
:100C6000050003D4C0F1FF3609F10105A5EB090029
:100C70002BE0B9F1010F01DA4FF001090020B9F1C1
:100C8000110F0090484601DD112300E003460AAA37
:100C900001A90CA8FFF7ABFEDDE90C704D4600265C
:100CA0008346207800070AD4AB4500DA5D4601A8E8
:100CB000012D04DD411911F8011C302907D04F45E1
:100CC00002DA17F1040F04DA012082460FE06D1EEC
:100CD000EEE7002F02DCED1B3E4403E0781CA84247
:100CE00000DD7D1CB81B00F1010A4FF000472078A1
:100CF000000703D4AA4501DB4FF0FF3A0021B7F10A
:100D0000004F0DF143088DF8431024D002202B230F
:100D1000002F01DA7F422D230A21021EA0F10100DB
:100D200000DC5FB197FBF1FC97FBF1F201FB1C7C4F
:100D300017460CF1300C08F801CDEEE7A8F10100E0
:100D400003702188090501D5452100E06521A0F146
:100D5000010800F8011C09980FA9A1EB0807FF1D65
:100D600000B10120411901EBEA70A1693844081A69
:100D7000401EA0612078C00602D42046FFF7E5FAA5
:100D8000099828B1D4E901219047206A401C2062CB
:100D90002078C00622D52046FFF7D7FA1EE0002EA5
:100DA00004DBB34502DD01A8805D00E03020D4E91A
:100DB00001219047206A401C2062761CAAF10100A4
:100DC0005FEA000A0AD100F019FAC0680168405CC5
:100DD000D4E901219047206A401C2062281EA5F119
:100DE0000105DCDC07E0D4E9012118F8010B90478C
:100DF000206A401C2062381EA7F10107F3DC204660
:100E0000FFF7B9FA032011B041E600002DE9F04FD9
:100E100004460D46D21D22F0070089B0D0E90097A4
:100E20004846394601F0F0FA0246F80F01D02D236A
:100E300007E02068810701D52B2302E0202101EA89
:100E4000C0038DF820300BB1012000E00020032A00
:100E5000824601D0072A04DB2946204600F0D2F959
:100E60003FE12078800601D40D2500E0E569C7F355
:100E70000A560D2D49DA00214FEA175B08464FF05C
:100E80000000002F00F4400007DA00EB80004FF470
:100E9000400100EBD07001EA60008115012901DDFD
:100EA0004FF0FF3100224FEA850CBCF1180F06D33A
:100EB0001346ACF118004FF08052C24003E04FF4EB
:100EC000801323FA0CF30CF10C0CBCF1200F04D3AB
:100ED000ACF1200C09FA0CF001E007FA0CF0002943
:100EE0004FF0004801DD18B90FE00ED140450CD39A
:100EF00019EB02095F4121B9404502D19F4329EA1C
:100F00000209BBEB175F00D0761C2088000502D5D4
:100F10007B48784402E07A487844193808AA30239C
:100F200002F80A30037C0AF10101002E0AF1020ADC
:100F300053546A4602DC4FF0300101E04FF03101BA
:100F40004FF001088DF8001002D0A6F2FF3603E042
:100F500059EA470100D06B4E002D02DC21780907C9
:100F600004D54FF002082E218DF80110C44600214F
:100F70000BE0C7F303433F01C35C491C6D1E02F83D
:100F80000830052908F1010801DA002DF1DC002103
:100F90000CE000EB1973491C1B786D1E082902F840
:100FA00008304FEA091908F1010801DA002DF0DCD8
:100FB00021688B0602D516E0A8F10108E04505DDA1
:100FC00002EB080313F8013C302BF5D0B8F1000F09
:100FD00009DD02EB080313F8013C2E2B03D10907AE
:100FE00001D4A8F10108002D05DD3E2102F808100A
:100FF0006D1E08F10108407C002E02F8080008F17F
:10100000010804DA2D20764202F8080002E02B20C5
:1010100002F808000A214FF47A70864208F10108AC
:101020000BDB96FBF0F3303302F8083096FBF0F35D
:1010300008F1010800FB136601E0642E0CDB64205C
:1010400096FBF0F3303302F8083096FBF0F308F12A
:10105000010800FB136601E00A2E06DB96FBF1F0A7
:10106000303002F8080008F1010896FBF1F001FBAE
:101070001060303002F80800A16908F1010808EB9F
:10108000050202EB0A00081AA0612078C00602D40B
:101090002046FFF75AF9216A08AE01EB0A002062E8
:1010A00004E0D4E9012116F8010B9047BAF1010AD6
:1010B000F7D22078C00602D52046FFF746F96E46E3
:1010C00009E016F8010B3E280FD0D4E90121904722
:1010D000206A401C2062B8F10108F2D22046FFF7D6
:1010E0004AF909B00320BDE8F08F206A2844206245
:1010F00003E0D4E90121302090476D1EEBD3F8E7DF
:10110000B621000002FCFFFF10B5436913B1AFF335
:10111000008001E0FFF752F9012010BD127800F1C4
:1011200024010A7000224A700122EDE711684FF095
:10113000FF32E9E710B5436913B1AFF3008001E076
:10114000FFF7D4F9012010BD128800F12401828438
:101150000022C2840122EDE711684FF0FF32E9E777
:1011600070B516460C46054600F040F8036893F843
:101170000101012806D0FF2C0FD8185D68B10120AD
:101180002C7070BDD3F807013246214603F20713D5
:1011900003442846BDE8704018474FF0FF3070BD4B
:1011A000754600F0EBF8AE4605006946534620F060
:1011B0000700854618B020B5FFF75AF8BDE8204073
:1011C0004FF000064FF000074FF000084FF0000B03
:1011D00021F00701AC46ACE8C009ACE8C009ACE8B6
:1011E000C009ACE8C0098D467047000010B500F09A
:1011F00005F8001D10BD00BF4D1E000000487047DF
:10120000C41400202DE9F0411F460446032601685E
:10121000072A01F4006004DB08B116A505E016A555
:1012200003E008B115A500E015A521F0100020602D
:10123000A069C01EA0610FB1401EA0612046FFF74B
:1012400084F84FB1D4E9012138469047206A401C08
:101250002062C01C206206E0206AFAE7D4E901217E
:1012600015F8010B9047761EF8D22046FFF783F859
:10127000BDE8F0814E414E006E616E00494E460061
:10128000696E66002DE9F047814616468AB03548FA
:1012900078440DC88DE80D0032487844801C03ACBA
:1012A0000DC884E80D0041F69B300844372190FBBF
:1012B000F1F290FBF1F5A5F1800501FB12041B3C56
:1012C00002D56442012000E00020DFF898A08046AB
:1012D0000027FA44AAF1BE0A0EE0E0070AD032461F
:1012E000684607EB470101230AEB810100F022FB6E
:1012F0008DE8070064107F1C002CEED1194F7F444D
:10130000AE3F19E0E80715D007EB04100DF1180AFD
:1013100090E80E008AE80E00C068F04201D19819EA
:1013200008903246012306A903A800F003FB03AB93
:1013300083E807006D10641C002DE3D14FF001031A
:1013400032466946B8F1000F03A802D000F0DDFA7A
:1013500001E000F0EFFAC9E90001C9F808200AB07D
:10136000BDE8F087C81E000010B50446AFF300804A
:101370002046BDE81040FEF762BF000000487047FD
:10138000A41400204FF0013C50F8042B51F8043B0A
:101390009A4221D1A2EB0C03934313EACC1317D149
:1013A00050F8042B51F8043B9A4215D1A2EB0C03E0
:1013B000934313EACC130BD150F8042B51F8043BA0
:1013C0009A4209D1A2EB0C03934313EACC13DBD06E
:1013D0004FF00000704700BFD01A01BAB1FA81F196
:1013E00001F0180122FA01F0CB40C1F12001DBB27B
:1013F000C0B2C01A2CFA01F3D11A914311EAC311F9
:10140000E6D1704701491820ABBEFEE72600020076
:1014100070475FEA400C08BF91F0000F4FEA8C2341
:101420004FEAC12243EA51514FEA1C5018BF00F560
:10143000F0404FEA300018BF41F000415FEA6C5CB9
:1014400000F02980BCF1FF3F08BF40F080407047AA
:10145000130C06BF12044FF0100C4FF0000C130ECB
:1014600004BF12020CF1080C130F04BF12010CF19F
:10147000040C930F04BF92000CF1020CD30F04BFB5
:1014800052000CF1010C11464FF00002A0F11F00B8
:10149000A0EB0C00704711F0004F08BF704731F00F
:1014A00000413FF4D5AF0B0C06BF09044FF0100C00
:1014B0004FF0000C0B0E04BF09020CF1080C0B0FCF
:1014C00004BF09010CF1040C8B0F04BF89000CF15F
:1014D000020CCB0F04BF49000CF1010CCCF120032E
:1014E000A0EB0C0022FA03F302FA0CF241EA03012A
:1014F00000F10100704720F07F4C80EA030023F0E8
:101500007F47ACEB070303F57C5300F0004003F189
:10151000FF032DE980494FEA154B09B44FEA144304
:1015200025EA0B4E24EA03480FF2042606EB1327A4
:1015300049083E785FEA320203FB0667C7F50007F9
:1015400007FB06F64FEA54374FEAD64606F1020685
:1015500007FB066CCCF1005C4FEA1C472CEA074CF9
:1015600007FB06F40CFB06F504EB15464FEA96164E
:1015700034BF00204FF000404FEAD13706FB07FC94
:101580004FEA1C4C0CFB0BF7D21B03FB0CF761EB77
:1015900007010CFB0EF7B0EB074072EB17420CFB98
:1015A00008F734BFA2EB0742B2EB074261EB1741E9
:1015B0004FEA0C444FEA910706FB07FC4FEA1C4C2C
:1015C0000CFB0BF7B0EBC74072EB573203FB0CF789
:1015D00034BFA2EBC742B2EBC74261EB57310CFB01
:1015E0000EF7B0EBC70072EB57720CFB08F734BF75
:1015F000A2EBC702B2EBC70261EB5771039F4FEA40
:10160000816141EA921104EBCC044FEAD1374FEAF1
:10161000826206FB07FC42EA90124FEA80604FEAC2
:101620001C4C0CFB0BF7D21B03FB0CF761EB070107
:101630000CFB0EF7B0EB074072EB17420CFB08F700
:1016400034BFA2EB0742B2EB074261EB17414FEA0E
:101650008C554FEA910704EB9C2406FB07FC4FEAEC
:101660001C4C0CFB0BF7B0EBC74072EB573203FB83
:101670000CF734BFA2EBC742B2EBC74261EB573164
:101680000CFB0EF7B0EBC70072EB57720CFB08F7C0
:1016900034BFA2EBC702B2EBC70261EB577115EB87
:1016A0004C254FEA816141EA92114FEA82624FEA8A
:1016B000D13742EA901206FB07FC44F100044FEADE
:1016C00080604FEA1C4C0CFB0BF7D21B03FB0CF7A2
:1016D00061EB07010CFB0EF7B0EB074072EB174212
:1016E0000CFB08F734BFA2EB0742B2EB074261EBF9
:1016F000174115EB1C154FEA813141EA92414FEA3F
:10170000823242EA90424FEA80304FEA0C7644F14E
:10171000000448EA03434EEA0B484FF0000EB2EBD8
:10172000080C71EB030724BF624639464EEB0E0EE0
:101730004FF0000B0018524149414BEB0B0BB2EB41
:10174000080C71EB03077BF1000B24BF624639469E
:101750004EEB0E0E4FF0000B0018524149414BEB7F
:101760000B0BB2EB080C71EB03077BF1000B24BFF2
:10177000624639464EEB0E0E51EA020718BF46F09C
:10178000010616EB0E7655F1000254F1000103D567
:10179000BDE88901BDE80088BDE88901BDE80048D1
:1017A000B619524141EB0101A3F10103704780805A
:1017B0007F7E7D7C7B7A79787776767574737271AB
:1017C00071706F6E6E6D6C6C6B6A6A696868676663
:1017D00066656464636362616160605F5F5E5E5DF5
:1017E0005D5C5C5B5B5A5A59595858575756565569
:1017F00055555454535352525251515050504F4FCB
:101800004F4E4E4D4D4D4C4C4C4B4B4B4A4A4A491A
:10181000494948484847474747464646454545445D
:101820004444444343434342424242414141002BEA
:101830009C4630D477002BD01CB54FEA370703B451
:101840004FF010004FF01001BAF1000F06D0BCF1BC
:10185000000FDCBF40F0080040F008014FF000002E
:101860000FBCBDE810400BF1010BBBF1010F08BF2D
:101870005FEA170722BF12F1010211F101014FF0D7
:10188000004143F1000300F0004043EA00007047CC
:10189000F9D35708D0E746EA064613F1400F4FEA5E
:1018A00016461FDD13F1200FDFBF16430A46002145
:1018B00020335B42BED0C3F1200746EA064602FA57
:1018C00007F74FEA164646EA0706C3F1200722FA51
:1018D00003F201FA07F721FA03F14FF0000342EA9D
:1018E0000702A7E746EA020646EA06464FEA164618
:1018F00046EA0106BCBF46EA0646360C4FF0000336
:101900004FF000024FF0000194E72DE9804C9A4619
:10191000934670B491E8380007C831EA400C48BFDC
:1019200034EA430C03D5FFF7E6FDFFF780FFF0BC78
:10193000BDE8008C2DE9804C9A46934670B491E83E
:10194000380007C810F0804F08BF13F0804F03D154
:1019500000F005F8FFF76BFFF0BCBDE8008C20F04D
:101960007F4780EA030023F07F4C07EB0C03A3F5CD
:101970007C5300F00040A3F1FE0392F0000F00F052
:10198000B38095F0000F00F077802DE901494FEA10
:1019900011404FEA144621EA004800FB06FC24EA05
:1019A000064708FB06F607FB08F800FB07F718EBED
:1019B00006484CEB164C4FEA124B18EB07484FEA1F
:1019C00015464CEB174022EA0B4E0BFB06FC25EAB2
:1019D00006470EFB06F607FB0EFE0BFB07F71EEB9A
:1019E000064E4CEB164C4FF000061EEB074E4CEB30
:1019F000174B18EB0B0840F1000018EB0E0B58EBDF
:101A0000000840F100008F1A4FF000013CBFC943AD
:101A1000661B14BFB5EB040C00213CBFC943F61B89
:101A20004FEA17444EEA8E0E27EA04454FEA1C4758
:101A300004FB07622CEA074C05FB07F70CFB05F6D5
:101A400004FB0CFC16EB074642EB174216EB0C4668
:101A500042EB1C421BEB060658EB0202414146EAF0
:101A60009E0601D5BDE80189B619524141EB01013D
:101A7000A3F10103BDE801894FEA14454FEA11477C
:101A800024EA054621EA074C05FB07F406FB07F7A5
:101A90000CFB06F105FB0CFC11EB074144EB174472
:101AA0004FEA124711EB0C4144EB1C4422EA074C6D
:101AB00005FB07F206FB07F70CFB06F605FB0CFC23
:101AC00016EB074642EB174216EB0C4642EB1C4561
:101AD0006A1854F1000148BF7047B619524141EBF2
:101AE0000101A3F10103704795F0000F37D04FEAD1
:101AF00011424FEA144721EA024624EA074C02FB4E
:101B000007F106FB07F70CFB06F402FB0CFC14EBD9
:101B1000074441EB17414FEA154714EB0C4441EBE6
:101B20001C4125EA074C02FB07F506FB07F70CFBF7
:101B300006F602FB0CFC16EB074645EB174516EBC9
:101B40000C4645EB1C42121951F1000148BF704789
:101B5000B619524141EB0101A3F1010370474FEA6D
:101B600014454FEA114724EA054621EA074C05FBD4
:101B700007F106FB07F70CFB06F24FF0000605FB2A
:101B80000CFC12EB074241EB174112EB0C4251EBFC
:101B90001C4148BF7047921841EB0101A3F10103BA
:101BA0007047000010B5094809490068884204D10F
:101BB000BDE8104007A001F013B90AA001F010F928
:101BC000BDE810400C4800F0B9B90000100000203A
:101BD0002211BBAA4F5441C2B8C3BCC390C3820DEB
:101BE0000A000000C38CC3B8C397C2AA41C2B7C3DE
:101BF00096C387C3B80D0A000050000810B5054809
:101C000001F05EF9044800F01DFEBDE810400348F5
:101C100000F018BE0038014000080140000C0140EF
:101C2000FEE7000010B588B04FF4A06001F046F860
:101C3000134C0421204600F046FC1248019000217C
:101C40000291114A0392049140F20112059240144C
:101C500006908DF81C1001208DF81D008DF81E10C7
:101C600001AA0421204600F04BFC0421204600F08C
:101C700018FC0421204600F002FC08B010BD000052
:101C8000000002400438014044040020FEE7042024
:101C900001F098B800B502464FF47A7302E0184696
:101CA00000F004F8521E92B2F9D200BD6C214843F4
:101CB0004FF0E021486100208861086940F0010090
:101CC00008610869C003FCD5086920F001000861BB
:101CD000704770B505460E4600F04AFD0024AD027F
:101CE00007E005EB842000F1006000F0E1FC641CDB
:101CF000A4B2B442F5D3BDE8704000F0C5BC70B5E5
:101D000006460C46154600F033FD06E030462168D5
:101D100000F04AFD2D1F361D241D002DF6D1BDE813
:101D2000704000F0B1BCFEE710B540F2036000F077
:101D3000C5FF0B4C402303221421204600F0E4FD94
:101D4000802303221421204600F0DEFD402120469E
:101D500000F076FD2046BDE81040802100F070BD07
:101D6000000C01402DE9F041074600250724294ECB
:101D70004FF001084021304600F060FD0220FFF7DF
:101D800095FF4021304600F05BFD8021304600F099
:101D900005FE18B108FA04F02843C5B20220FFF787
:101DA00085FF641E64B2002CE4DA4021304600F066
:101DB00045FD0220FFF77AFFB7B18021304600F0E1
:101DC0003DFD4021304600F03BFD0220FFF76EFF55
:101DD0004021304600F032FD8021304600F030FDD9
:101DE0000220FFF763FF11E08021304600F028FD5C
:101DF0004021304600F024FD0220FFF757FF40212C
:101E0000304600F01BFD0220FFF750FF2846BDE8DA
:101E1000F0810000000C01402DE9F0410546072447
:101E2000154E01274021304600F008FD07FA04F066
:101E3000284204D08021304600F002FD03E08021DA
:101E4000304600F0FBFC0220FFF730FF4021304617
:101E500000F0F6FC0220FFF729FF641E64B2002C9C
:101E6000E0DA4021304600F0E9FC3046BDE8F041C0
:101E7000802100F0E5BC0000000C014010B50C4CC6
:101E80004021204600F0DCFC8021204600F0D8FCF8
:101E90000220FFF70BFF8021204600F0CFFC02203C
:101EA000FFF704FF2046BDE81040402100F0C6BC0B
:101EB000000C014010B5094C4021204600F0C0FC48
:101EC0008021204600F0BAFC0220FFF7EFFE2046FA
:101ED000BDE81040802100F0B3BC0000000C0140C0
:101EE00070B50446144D641E24B20220FFF7DEFED6
:101EF0008021284600F052FD08B1002CF3DA002CB6
:101F000001DA012070BD2C464021204600F098FCEB
:101F10000220FFF7CBFE8021204600F03FFD08B1F4
:101F2000022070BD4021204600F088FC0220FFF70F
:101F3000BDFE002070BD0000000C014010B504463D
:101F40002068A0F10051B1F5A04F0AD2FEF77EF94A
:101F50006068044C2060FFF751FE2068BDE8104027
:101F6000004710BD0C0000202DE9F04104460D464D
:101F70001746FFF783FFA020FFF74EFF6420FFF70F
:101F8000AFFF10B10120BDE8F0812046FFF744FF0C
:101F90006420FFF7A5FF08B10220F4E7FFF76EFF0A
:101FA000A120FFF739FF6420FFF79AFF08B1032053
:101FB000E9E700247E1E05E00120FFF7D3FE285547
:101FC000641CE4B2B442F7DB0020FFF7CBFEE91952
:101FD00001F8010CFFF76EFF0020D4E710B53021A7
:101FE0000448FEF788F93022BDE81040014900207E
:101FF000FFF7BABF1000002070B505460C46FFF78A
:102000003DFFA020FFF708FF6420FFF769FF08B13C
:10201000012070BD2846FFF7FFFE6420FFF760FF38
:1020200008B1022070BD2046FFF7F6FE6420FFF7DE
:1020300057FF08B1032070BDFFF73CFF002070BDC3
:1020400070B5084D0024200705EB0411000E00F0C8
:102050000BF80520FFF71EFE641CE4B2032CF2D33C
:1020600070BD00001000002070B504460D46FFF75B
:1020700005FFA020FFF7D0FE6420FFF731FF08B175
:10208000012070BD2046FFF7C7FE6420FFF728FF40
:1020900008B1022070BD0024285DFFF7BDFE64205A
:1020A000FFF71EFF10B1E41CE0B270BD641CE4B287
:1020B000102CF1D3FFF7FEFE002070BDFEE7FEE717
:1020C000FEE770B506460D46002405E0FF2000F04F
:1020D00007F83055641CA4B2AC42F7D370BD0000C1
:1020E00070B505460A4C0221204600F016FE012874
:1020F000F9D12946204600F00EFE0121204600F0CD
:102100000CFE0128F9D1204600F002FEC0B270BDDD
:102110000030014070B505460E46002404E0285DFD
:10212000FFF7DEFF641CA4B2B442F8D370BDFEE733
:10213000704700001CB5344C206840F0010020605E
:1021400020688007FCD56068C0F38100022830D188
:102150000021019102E00198401C01900198502853
:10216000F9D360680090009820F0F000009000988B
:1021700040F08000009000986060019102E00198BA
:10218000401C019001985028F9D360680090009895
:1021900020F0F0000090009840F09000009000982F
:1021A0006060019102E00198401C01900198502864
:1021B000F9D3606820F003006060642000F03FF90C
:1021C00021681248014021606168114A1140616034
:1021D000216801402160216821F48021216061682B
:1021E0000C4A114061602168014021604FF41F00DA
:1021F000A06000F0E5FDBDE81C404FF4A0414FF0A9
:10220000006000F0D9BC000000100240FFFFF6FEA5
:102210000C00FFE8FFFF00F70648011F48658865CE
:1022200000F14802CA65A1F58052026000200880D2
:10223000704700004814002070B5264C2449204601
:1022400000F0ADFE012842D10421204600F08FFEAF
:10225000204600F02DFE204D0421284600F0C1F953
:102260001E4C2188081A00F2011081B221801C48FE
:102270000844616D4860616D08316165E06D8142BF
:1022800001D1201D606521881648C1F50062FF2A32
:1022900003DD0844616D086003E0616D08600020A3
:1022A00020800421284600F0D8F840F201120421D1
:1022B000284600F085F9616D28460A68042100F07F
:1022C00062F92846BDE87040042100F0D8B870BD1E
:1022D00004030400003801400000024044140020C0
:1022E0004304002044040020FEE7000070B50546CA
:1022F00040F20E6000F0E2FC40F2026000F0DEFC12
:10230000224C4FF4007303221821204600F0FCFAFF
:10231000231503220421204600F0F6FA1C4C204627
:1023200000F0CEFD2946204600F08AFD002120461F
:1023300000F04EFE0021204600F066FE00212046FF
:1023400000F054FE0821204600F058FE04212046EB
:1023500000F046FE4021204600F0FAFD4FF4A06058
:1023600000F020FC00221146252000F0D3FB4FF4A2
:102370004171204600F008FEFFF74EFFFFF752FCC8
:102380002046BDE8704000F0EDBD000000080140AF
:1023900000380140F8B50546144603208DF80000CA
:1023A000080C8DF80100080A8DF802008DF8031062
:1023B00000F014F8084E1021304600F03FFA0421D6
:1023C0006846FFF7A7FEA1B22846FFF77AFE102164
:1023D000304600F035FAF8BD0008014070B5094DEF
:1023E0001021284600F02AFA0520FFF779FEFF2089
:1023F000FFF776FE04461021284600F021FAE00798
:10240000EED170BD00080140490050EAC12018BF5C
:1024100004204A0D18BF40F0010040F2FF72B2EBF9
:10242000515F08BF40F00200012808BF0520704737
:1024300030380A2801D2012070470020704708B5C3
:102440000021009100EB800002E00099491C0091FE
:102450000099B1EB400FF8D308BD70B505460C46A6
:102460002146284600F0A0F840B104EB840005EBBB
:102470008000816821F00101816070BDFEE770B5C8
:1024800005460C462146284600F08EF840B104EB84
:10249000840005EB8000816841F00101816070BD1E
:1024A000FEE770B505460C462146284600F07CF84C
:1024B00040B104EB840005EB8000816821F020012D
:1024C000816070BDFEE770B504460D462946204682
:1024D00000F06AF898B105EB850004EB8002906883
:1024E00020F00100906000209060D0601061506189
:1024F0006068AA000F2191400843606070BDFEE74C
:1025000070B506460D4614462946304600F04CF894
:1025100048B305EB850006EB800022680261A168E4
:102520004161218A89B2C160816821F47C52E368EB
:10253000616819436369134319438160217E01294E
:1025400012D0816821F040018160617E012910D0A4
:10255000816821F080018160A17E79B1816841F0BC
:102560001001816070BDFEE7816841F0400181602B
:10257000EBE7816841F080018160EDE7816821F03F
:102580001001816070BD70B506460C4615462146A7
:10259000304600F009F828B104EB840006EB800017
:1025A000456170BDFEE7000002460120034B9A42E0
:1025B00002D1042900D90020704700000004024025
:1025C00070B506460C46154621463046FFF7ECFF2F
:1025D00030B104EB840106EB8101A8B2C86070BD84
:1025E000FEE770B505460C4621462846FFF7DCFF9E
:1025F00028B104EB840005EB8000C06870BDFEE7E5
:1026000000B5034600F00AF85B1E012801D1002B3B
:10261000F8D1012800D1042000BD000000200849A5
:10262000CA68D20701D001207047CA68D20601D516
:1026300003207047C9684907FBD502207047000096
:102640000020024000B5034600F00AF85B1E012896
:1026500001D1002BF8D1012800D1042000BD0000D9
:1026600000200849CA6CD20701D001207047CA6C0B
:10267000D20601D503207047C96C4907FBD502205B
:1026800070470000002002400748016941F08001C6
:10269000016106490988B1F5007F03D9016D41F058
:1026A000800101657047000000200240E0F7FF1F35
:1026B00070B504462B482C4D4FF470260088B0F5B9
:1026C000007F36D92948844217D23046FFF798FF59
:1026D000002811D1286940F0020028616C61286946
:1026E00040F04000286100BF00BF3046FFF788FF80
:1026F000296921F00201296170BD3046FFF7A2FF70
:102700000028F9D1286D40F0020028656C65E86961
:10271000800700D56C61286D40F04000286500BF3F
:1027200000BF3046FFF78EFF296D21F002012965B9
:1027300070BD3046FFF764FF0028F9D1286940F0EA
:10274000020028616C61286940F04000286100BFE8
:1027500000BF3046FFF754FF296921F002012961CB
:1027600070BD0000E0F7FF1F00200240FFFF0708D8
:1027700009480169094A0B06094901D542604160CF
:10278000084B1B88B3F5007F04D9036D1B0601D5E8
:102790004264416470470000002002402301674505
:1027A000AB89EFCDE0F7FF1FF0B504460D4620489A
:1027B000204E4FF470270088B0F5007F26D91E48C0
:1027C000844211D23846FFF71BFF00280BD1306935
:1027D00040F00100306125603846FFF711FF316994
:1027E00021F001013161F0BD3846FFF72BFF0028D1
:1027F000F9D1306D40F00100306525603846FFF7B3
:1028000021FF316D21F001013165F0BD3846FFF740
:10281000F7FE0028F9D1306940F0010030612560F1
:102820003846FFF7EDFE316921F001013161F0BD5D
:10283000E0F7FF1F00200240FFFF070841617047DB
:102840000161704710B52E4A811A1315D4149042B5
:1028500036D010DC2B4940181ED0984226D0A0421A
:102860004CD14FF44174204600F044FA2046BDE8B4
:10287000104000F031BA99422CD0A14234D0B1F5C9
:10288000406F3BD14FF44274204600F033FA2046AB
:10289000BDE8104000F020BA40F20234204600F0BB
:1028A00029FA2046BDE8104000F016BA40F2033481
:1028B000204600F01FFA2046BDE8104000F00CBA98
:1028C00040F20534204600F015FA2046BDE81040DD
:1028D00000F002BA40F20634204600F00BFA20461F
:1028E000BDE8104000F0F8B940F20734204600F08F
:1028F00001FA2046BDE8104000F0EEB910BD00001E
:102900000014014000F8FEBF2DE9F04301F00F0470
:10291000CD0600D5144300224FF00F0C012707FA13
:1029200002F51D4014D0D0F8008096000CFA06F98C
:1029300028EA090804FA06F949EA0809282902D010
:10294000482902D002E0456100E00561C0F800902E
:10295000521C92B2082AE2D3082207FA02F51D405F
:1029600016D0D0F80480A2F10806B6000CFA06F9D9
:1029700028EA090804FA06F949EA0809282902D0D0
:10298000482902D002E0456100E00561C0F80490EA
:10299000521C92B2102AE0D3BDE8F083806808424E
:1029A00001D001207047002070470000FFF76FF949
:1029B0004FF46120FFF79AFCFFF7B6F90024484E68
:1029C00006F10807C4F103052046715DFFF714FB0B
:1029D000715D44A000F004FA0520FFF75BF9391996
:1029E00001222046FFF7C0FA0520FFF753F9395DB1
:1029F0003CA000F0F5F9641CE4B2032CE2D9FFF727
:102A0000EDFAFFF7CFF8394D354CA5F130062079B6
:102A1000C007FCD0D5F8000406EB8000416834A064
:102A200000F0DEF9D5F8000406EB8000007980079D
:102A300007D033A000F0D4F9606820F00100606096
:102A4000E5E72C211420FFF744F900244FF000673C
:102A50004FF480680EE0A10201EB0041424623489A
:102A6000FFF798FC07EB842042462049FFF747F91F
:102A7000641CE4B2D5F8000406EB80014968B4EBAD
:102A8000912FE8D3D5F8001406EB81014A6891052F
:102A900013D0A10201EB0041C2F309021348FFF772
:102AA00079FCD5F80004114906EB80008088C0F35A
:102AB000090207EB8420FFF722F9D5F8000418B9C2
:102AC00000203060FFF7BCFABFF34F8F0F49086852
:102AD0000F4A00F4E06010430860BFF34F8FFEE739
:102AE00000000020307825780D0A0000400000200A
:102AF000B3A4B6C82564D7D6BDDA0D0A000000001D
:102B0000B3A4B6C8B4EDCEF30D0A00000CED00E09E
:102B10000400FA05F0B506460F46002300242048BD
:102B2000006800F4E0654FF4A06085422FD006DC19
:102B3000B5F5407F31D0B5F5806F06D12AE0B5F507
:102B4000C06F21D0B5F5E06F1CD000F02BF8022348
:102B50000224C3F104008740C4F104010F20C840DF
:102B600010403843000106F1E02181F8000406F02E
:102B70001F01012088407111890001F1E021C1F895
:102B80000001F0BD0424E4E701230324E1E702236C
:102B90000224DEE703230124DBE70423D9E7000056
:102BA0000CED00E00249084302490860704700004C
:102BB0000000FA050CED00E0034A11400143034810
:102BC0000160BFF34F8F704780FFFF1F08ED00E0EB
:102BD00070B588B00246002031A104AE91E83800FB
:102BE000C96838C607912FA10AC9CDE902132DA1E2
:102BF0000AC9CDE900132E4C6168C1F381012D4B48
:102C0000002923D0012923D0022923D01946636843
:102C1000C3F3031304ADEB5C21FA03F36568C5F35A
:102C2000022502AE755D23FA05F56468C4F3C2247B
:102C30001DF8044023FA04F45AB3012A2BD0022AC7
:102C40002BD0032A00D1204608B070BD1946DEE71C
:102C50001946DCE7616801F48031174DB1F5803F1A
:102C60000CD02B466168C1F3834165682D0101D505
:102C700041F010010F2909D2891C08E0616801F4B4
:102C80000031B1F5003FEDD12B46EBE7491C59432C
:102C9000BDE70846D8E71846D6E72846D4E700003F
:102CA00000000000000000000102030406070809FC
:102CB0000010024000127A0000093D00054901EBB6
:102CC00090110A6800F01F030120984002430A6037
:102CD0007047000000100240054901EB90110A689E
:102CE00000F01F030120984082430A6070470000F3
:102CF00000100240054901EB90110A6800F01F0323
:102D00000120984002430A60704700000010024012
:102D1000C06880B27047C16070478068084201D0C7
:102D2000012070470020704708B500212148026843
:102D300042F4803202604FF6FF73491C026802F4CD
:102D400000320AB99942F8D10168890300D4FEE73C
:102D50004168416041684160416841F4806141607F
:102D6000416821F440314160416841F440314160A3
:102D70004168114A114041604168104A1143416065
:102D8000016841F08071016001688901FCD54168EA
:102D90000091009921F003010091009941F0020196
:102DA0000091009941604168C1F381010229FAD183
:102DB00008BD000000100240FFFFC3F70000280814
:102DC000FFF7B2BF4FF0E021042804D0086920F0DB
:102DD000040008617047086940F00400086170470A
:102DE0000FB4F8B507AA14480699FDF753FA002066
:102DF00000900024114E104D0FE00721304600F0E6
:102E0000B6F80721304600F0B2F80128F9D1295D63
:102E1000304600F051F8641CA4B20748FDF74CFAA4
:102E2000A042EAD80621304600F0A1F80128F9D1E5
:102E3000F8BC5DF814FB0000440C00200038014091
:102E400070B504460D460020174BE21A1E159C4231
:102E500016D008DC154962180ED0B24217D10220F4
:102E6000FFF7B6FE13E0B2420ED0B2F56C4F0ED1B2
:102E70000320FFF7ADFE0AE00220FFF7A9FE06E0FF
:102E80000220FFF7A5FE02E00220FFF7A1FE00EB03
:102E90005500B0FBF5F04FF6F071014000F00F0265
:102EA0001143A16070BD0000004C004000BCFFBF9A
:102EB0004068C0F308007047C1F3080141607047E3
:102EC00010B5214A811A1315904228D00EDC1F49F3
:102ED00040181AD0984236D140F212442046FFF7EB
:102EE00009FF2046BDE81040FFF7F6BE994220D00A
:102EF000B1F56C4F27D140F20E342046FFF7FAFEB1
:102F00002046BDE81040FFF7E7BE40F211442046DE
:102F1000FFF7F0FE2046BDE81040FFF7DDBE40F2AF
:102F200013442046FFF7E6FE2046BDE81040FFF7B9
:102F3000D3BE40F214442046FFF7DCFE2046BDE835
:102F40001040FFF7C9BE10BD004C004000BCFFBFE1
:102F5000426922F040024261426901F040010A43A5
:102F600042617047C16841F40051C160704700EB95
:102F70009110006801F01F0201219140084201D028
:102F8000012070470020704710B5C1F389128358A3
:102F900001F01F040121A1400B43835010BD30B547
:102FA000C1F38912825801F01F04012505FA04F3C8
:102FB0001A4000EB91500068C1F3044105FA01F397
:102FC0001840002802D00AB1012030BD002030BDD9
:102FD000C26822F4C062C260C2680A43C26070471D
:102FE000C26822F004020A43C2607047026922F4F8
:102FF0004052026102690A4302617047C26822F0CE
:1030000008020A43C2607047C26822F48052C2605C
:10301000C2680A43C260704710B500290AD0087818
:10302000002807D005487844FEF7ACF9002801D005
:10303000002010BD0248784410BD00006E01000061
:103040006601000010B500290AD00878002807D0D2
:1030500005487844FEF796F9002801D0002010BDFD
:103060000248784410BD00005E01000056010000D7
:10307000FDF795BDFDF7CABE00000000000000008E
:10308000303132333435363738394142434445469E
:103090004030580030313233343536373839616298
:1030A000636465664030780004000008000000009A
:1030B0000000000200010000103031323334353698
:1030C0003738396162636465667870003031323355
:1030D000343536373839414243444546585000006C
:1030E00002400000000000A00000000005400000B9
:1030F000000000C8000000000C4000000000409CE0
:1031000000000000194000000020BCBE00000000CC
:1031100034400000BFC91B8E00000004B540000011
:10312000504BCFD06607E2CF010000006C41000099
:103130003E8251AADFEEA73401000000D942000010
:10314000DCB5A0E23A301F97FFFFFFFFB445000057
:10315000FD25A0C8E9A3C14FFFFFFFFFFF3F00000F
:103160000000008000000000FF3F00000000008021
:1031700000000000C0320008000000201000000025
:1031800040010008D032000810000020F81A0000AA
:103190005C0100081C00000043000000F8FFFFFF76
:1031A0000C0000000E0000000F0000002E000000C8
:1031B0001001000043000000F8FFFFFF0040404006
:1031C00040404040404041414141414040404040FA
:1031D00040404040404040404040404040050202A6
:1031E0000202020202020202020202020220202065
:1031F00020202020202020020202020202029090C1
:1032000090909090101010101010101010101010BE
:103210001010101010101010020202020202888812
:10322000888888880808080808080808080808081E
:103230000808080808080808020202024000000006
:10324000000000000000000000000000000000007E
:10325000000000000000000000000000000000006E
:10326000000000000000000000000000000000005E
:10327000000000000000000000000000000000004E
:10328000000000000000000000000000000000003E
:10329000000000000000000000000000000000002E
:1032A000000000000000000000000000000000001E
:1032B000000000000000000000000000000000000E
:1032C000AABB112200000000000000000000000066
:0400000508000105E9
:00000001FF
