:020000040800F2
:10000000C016002031020008B5130008AD13000827
:10001000B1130008A513000829160008000000000D
:10002000000000000000000000000000BD130008F8
:10003000A913000800000000B9130008C11300084C
:100040004B0200084B0200084B0200084B0200085C
:100050004B0200084B0200084B0200084B0200084C
:100060004B0200084B0200084B0200084B0200083C
:100070004B0200084B0200084B0200084B0200082C
:100080004B0200084B0200084B0200084B0200081C
:100090004B0200084B0200084B0200084B0200080C
:1000A0004B0200084B0200084B0200084B020008FC
:1000B0004B0200084B0200084B0200084B020008EC
:1000C0004B0200084B0200084B0200084B020008DC
:1000D0004B020008851500084B0200084B0200087F
:1000E0004B0200084B0200084B0200080000000011
:1000F0000000000000000000000000000000000000
:100100004B02000800F002F800F082F80AA090E824
:10011000000C82448344AAF10107DA4501D100F0C2
:1001200077F8AFF2090EBAE80F0013F0010F18BF0D
:10013000FB1A43F001031847442500005425000032
:100140000023002400250026103A28BF78C1FBD8E0
:10015000520728BF30C148BF0B6070476E2900F0BE
:100160005981702900F09B82662902F0018265297D
:1001700002F0FE81672902F0FB81612902F0FA8119
:1001800003681B0A28BF41F08001692900F006813D
:10019000642900F00381752900F000816F2900F0C7
:1001A0002982782900F06782E92900F0C381E429D7
:1001B00000F0C081F52900F0BD81EF2900F0268212
:1001C000F82900F066820368DB0928BF41F080014E
:1001D000632900F06787732900F06C87E32900F03A
:1001E0007787F32900F07C87002070471FB500F067
:1001F000CDFF04000020002102F0A4F9401C606043
:100200000020002102F088F9E0601FBD10B510BD8C
:1002100000F08EFF1146FFF7E9FF01F0A9FB01F0A6
:100220006BF803B4FFF7F2FF03BC01F0B3F8000072
:100230000948804709480047FEE7FEE7FEE7FEE77A
:10024000FEE7FEE7FEE7FEE7FEE7FEE704480549B6
:10025000054A064B70470000C51300080501000859
:10026000C0100020C0160020C0120020C0120020C4
:100270001CB50C46064B7B4469460090204600F0B6
:10028000E2F804460020694600F0F0F820461CBD64
:10029000F301000010B5431C02E010F8011B71B11E
:1002A0008107FAD14FF0013202C88C1A8C4314EA4C
:1002B000C211F9D0C01A0A0603D0C01E10BDC01A60
:1002C00010BD0A0401D0801E10BD0902FCD0401EE2
:1002D00010BD70477047704770B504468569006867
:1002E000C10601D5302600E02026C00707D070BD2A
:1002F000D4E9012130469047206A401C20626D1EDF
:10030000F6D570BD70B5044685690078C00707D181
:1003100070BDD4E9012120209047206A401C206252
:100320006D1EF6D570BD09684A0501D540B270470B
:10033000C905FCD500B2704709684A0501D5C0B2AD
:100340007047C905FCD580B2704770B50C460546AC
:10035000012A05D02878800600D5EA69002302E04A
:10036000012305E05B1C934202D2E05C0028F9D136
:10037000A869E618C01AA861286A184428622846A5
:10038000FFF7AAFF04E0D5E9012114F8010B90471B
:10039000B442F8D32846FFF7B5FF70BD2DE9F04110
:1003A0000646002410687529314616A510D0FFF7BF
:1003B000BAFF002802DA404213A507E031688A0735
:1003C00001D512A502E0490704D511A5012401E0D9
:1003D000FFF7B2FF00210A2206F1240709E0B0FB73
:1003E000F2FCB0FBF2F302FB1C00303078541846EC
:1003F000491C0028F3D123462A463046BDE8F04187
:1004000000F061BA000000002D0000002B00000089
:100410002000000011680268006A530501D50870C9
:100420000AE0D30501D5088006E0130603D5C217FC
:10043000C1E9000200E008600120704701694A1C20
:1004400002610878704700B58FB0CDE90131002115
:10045000059105497944CDE903101146684600F03D
:1004600029F90FB000BD0000E5FFFFFF0A6802F8A0
:10047000010B0A60704700002DE9FF5F15468A46B0
:100480000446DFF8AC80F8440027D8E900103E4667
:10049000CDE9001010E03AF816106A4602A800F004
:1004A00023FE411C07D02178890603D5E26939185B
:1004B00091420DD80744761C2078800602D5E06969
:1004C000B84205DDAE42E6DB3AF816000028E2D17C
:1004D000A069C01BA0612046FFF7FEFED8E900100E
:1004E000CDE90010002017E03AF818106A4602A87B
:1004F00000F0FAFDB0F1FF3F81460BD000250DF171
:10050000080B05E0D4E901211BF8050090476D1C9C
:100510004D45F7D308F10100B0428046E4DB206A84
:10052000384420622046FFF7EDFEBDE8FF9F000043
:10053000EE2000002DE9F0418046D21D22F0070296
:100540000025D2E90002F52915A614D0011E72F18A
:10055000000106DA0023D0EB030063EB020211A6D0
:1005600008E0D8F800108B0701D50FA602E0490774
:1005700001D50EA601251146002408F1240704E048
:1005800000F05CF930323A55641C50EA0102F7D1B0
:100590002B46324621464046BDE8F04100F093B973
:1005A000000000002D0000002B00000020000000D3
:1005B00030B4002100F1240408E002F00705D2085D
:1005C000303542EA4372DB086554491C52EA0305A0
:1005D000F3D10468002310A2250708D504F02004F5
:1005E0000C4304D0C46901230CA2641EC46130BC56
:1005F00000F069B910B5044621461068FFF79CFE6B
:1006000002462046BDE810400023D1E7D21D22F06B
:100610000701D1E90023CBE7000000003000000013
:10062000F0B40D460188090502D5214C7C4402E056
:100630001F4C7C440E34002100F1240608E002F037
:100640000F071209E75D42EA03721B097754491C40
:1006500052EA0307F3D102780023120704D5702D64
:1006600006D009B1022311342246F0BC00F02BB9A8
:1006700001231034F8E770B504460D462146106892
:10068000FFF75AFE024629462046BDE87040002387
:10069000C6E7D21D22F00703D3E90023C0E70368B1
:1006A000126843F0200303600823C3610023B7E707
:1006B000501F00002DE9F05F894604464FF0000A04
:1006C000DFF874B1FB44C0F820A02046E1688847F9
:1006D000002874D0252806D0D4E901219047206A4B
:1006E000401C2062F1E700265F462046E16888470B
:1006F0002028054607DB312D05D2781910F8200C8B
:1007000008B10643F1E7B00701D526F00406C4F8A6
:100710001CA00027C4F818A02A2D09D0284601F0F3
:10072000F3FE38B304EB8708303DC8F8185019E0E1
:1007300059F8041B204604EB87029161E168884761
:10074000012F054618D1E069002820DA26F020069E
:100750001DE0D8F8180000EB800005EB40003038B1
:10076000C8F818002046E1688847054601F0CCFE2D
:100770000028EED1012F0AD02E2D08D12046E168A5
:1007800088477F1C0546022F46F02006C4DBA0697F
:10079000002803DA404246F00106A061F00701D0CC
:1007A00026F010066C2D0BD0682D09D04C2D39D0B9
:1007B0006A2D35D0742D35D07A2D33D016E038E03F
:1007C000E1682F4620468847B842054609D16C2F7C
:1007D00026D04FF48060E1680643204688470546EE
:1007E00004E06C2F1AD04FF4807006430DB3A5F1CE
:1007F0004100192802D8203546F400664A462946A9
:10080000204626604E46FFF7A9FC80B101280BD098
:10081000F61D26F0070000F1080956E74020E4E73E
:100820008020D8E70020D6E706F104094DE72846E6
:1008300052E7206ABDE8F09FE01E000030B5B0F13D
:100840000A0271F100034FEA900E4EEA817EB0EB8E
:100850000E0061EB91014FEA101E4EEA017E10EB93
:100860000E0041EB11114FEA102E4EEA016E10EB13
:100870000E0041EB11214FEA104E4EEA014E10EBF3
:100880000E0041EB1141401841F100014FEAD00048
:1008900040EA41704FEAD1014FEA810444EA907482
:1008A00010EB800544EB01046D1944EB0404521B6A
:1008B000A3414FF0000348BF0A3200D530BD401CB1
:1008C00041F1000130BD2DE9F0470D4699469246B1
:1008D000044600F124080168880604D5E06921F087
:1008E0001001216000E00120A84201DD471B00E06B
:1008F0000027A1697A1902EB0900081AA061207883
:10090000C00602D42046FFF7E7FC002608E0D4E941
:1009100001211AF806009047206A401C761C2062CC
:100920004E45F4DB2078C0060AD52046FFF7D4FCFC
:1009300006E0D4E9012130209047206A401C206263
:10094000381EA7F10107F4DC07E0D4E9012118F80B
:1009500005009047206A401C2062281EA5F1010571
:10096000F3DC2046FFF7CEFC2078000602D50220FB
:10097000BDE8F0870120FBE72DE9FF4F0C461E463E
:100980004FF0FF378BB0D2E90001DDF860800A90AC
:100990008A46C1F30A5505B93D46002108464FF085
:1009A0000000BAF1000F00F4400005DA00EB80000F
:1009B0004FF4400101EA50004FEA9059B9F1010F9C
:1009C00000DDB9460A9850EA4A000ED044F61050AD
:1009D000A5F2FF3545432F14B8F1000F1ED0754224
:1009E000291E1EDDC9F100021CE0B8F1010F4FF015
:1009F000000001D0302103E0F24305E02154401C07
:100A0000B042FBDB30460022002121540B99C1F893
:100A10000880C1E900200FB0BDE8F08FBD1B6D1C40
:100A2000DEE74A4600DA694206A800F0F3FB06ABAF
:100A300093E8070003AB83E8070050460A9901F0EA
:100A400087F98DE80700A0F500501F380090039843
:100A5000002D0ADD42F21F014A460844002303A983
:100A60000390684601F0F0FB09E0A0F500504A460B
:100A70001F38002303A90390684601F0FAFB8DE8B4
:100A800007000004000C03D04FF0FF30410800E0E5
:100A90001046B8F1000F03D00022009215461EE068
:100AA000751E05D4FFF7CAFE303262556D1EF9D5AA
:100AB000B3460122084302D000227F1C04E02078C4
:100AC000302801D100227F1E002A099784D01DE022
:100AD000112D07DAFFF7B2FE303262556D1C50EA75
:100AE0000102F5D1084302D00098C8B10EE0002100
:100AF000681E05E0235C625C63542254401E491C5E
:100B00008142F7DBAB46A81B401E0990002004F889
:100B10000B000B98099AC0F80880C0E9002B7AE70F
:100B200011264FF0000857E72DE9F04F884604469C
:100B3000D21D22F0070191B0D1E90001CDE90A01EF
:100B400001F0CEFC02460B98C00F01D02D2007E02B
:100B50002068810701D52B2002E0202101EAC00096
:100B6000032A099001D0072A05DB034641462046A7
:100B700000F010FB0BE12078800601D5E06900E071
:100B80000620B8F1650F814606D0B8F1660F18D07F
:100B9000B8F1670F70D131E00020B9F1110F00906A
:100BA00001DB112301E009F101030AAA01A90CA844
:100BB000FFF7E2FEDDE90C70002609F1010583462E
:100BC00047E001204B4600904FF000470AAA01A9D8
:100BD0000CA8FFF7D1FEDDE90DB00C995D460026AB
:100BE00010B909F101000D18B9EB050003D4C0F1EB
:100BF000FF3609F10105A5EB09002BE0B9F1010F62
:100C000001DA4FF001090020B9F1110F00904846B8
:100C100001DD112300E003460AAA01A90CA8FFF791
:100C2000ABFEDDE90C704D460026834620780007B8
:100C30000AD4AB4500DA5D4601A8012D04DD411957
:100C400011F8011C302907D04F4502DA17F1040FC3
:100C500004DA012082460FE06D1EEEE7002F02DC71
:100C6000ED1B3E4403E0781CA84200DD7D1CB81B50
:100C700000F1010A4FF000472078000703D4AA458D
:100C800001DB4FF0FF3A0021B7F1004F0DF14308AF
:100C90008DF8431024D002202B23002F01DA7F424D
:100CA0002D230A21021EA0F1010000DC5FB197FB99
:100CB000F1FC97FBF1F201FB1C7C17460CF1300CA8
:100CC00008F801CDEEE7A8F10100037021880905BD
:100CD00001D5452100E06521A0F1010800F8011CC3
:100CE00009980FA9A1EB0807FF1D00B101204119C8
:100CF00001EBEA70A1693844081A401EA06120780F
:100D0000C00602D42046FFF7E7FA099828B1D4E9D3
:100D100001219047206A401C20622078C00622D51D
:100D20002046FFF7D9FA1EE0002E04DBB34502DDB2
:100D300001A8805D00E03020D4E901219047206ABD
:100D4000401C2062761CAAF101005FEA000A0AD169
:100D500000F01CFAC0680168405CD4E901219047AA
:100D6000206A401C2062281EA5F10105DCDC07E09A
:100D7000D4E9012118F8010B9047206A401C206239
:100D8000381EA7F10107F3DC2046FFF7BBFA03206A
:100D900011B041E62DE9F04F04460D46D21D22F078
:100DA000070089B0D0E900974846394601F098FB22
:100DB0000246F80F01D02D2307E02068810701D5F6
:100DC0002B2302E0202101EAC0038DF820300BB173
:100DD000012000E00020032A824601D0072A04DB1C
:100DE0002946204600F0D6F93FE12078800601D45C
:100DF0000D2500E0E569C7F30A560D2D49DA0021FB
:100E00004FEA175B08464FF00000002F00F4400047
:100E100007DA00EB80004FF4400100EBD07001EAEC
:100E200060008115012901DD4FF0FF3100224FEAFA
:100E3000850CBCF1180F06D31346ACF118004FF027
:100E40008052C24003E04FF4801323FA0CF30CF1FC
:100E50000C0CBCF1200F04D3ACF1200C09FA0CF0FF
:100E600001E007FA0CF000294FF0004801DD18B945
:100E70000FE00ED140450CD319EB02095F4121B9B7
:100E8000404502D19F4329EA0209BBEB175F00D01E
:100E9000761C2088000502D57B48784402E07A4819
:100EA0007844193808AA302302F80A30037C0AF182
:100EB0000101002E0AF1020A53546A4602DC4FF087
:100EC000300101E04FF031014FF001088DF80010C2
:100ED00002D0A6F2FF3603E059EA470100D06B4E7C
:100EE000002D02DC2178090704D54FF002082E21DD
:100EF0008DF80110C44600210BE0C7F303433F0106
:100F0000C35C491C6D1E02F80830052908F1010870
:100F100001DA002DF1DC00210CE000EB1973491C13
:100F20001B786D1E082902F808304FEA091908F1EC
:100F3000010801DA002DF0DC21688B0602D516E0ED
:100F4000A8F10108E04505DD02EB080313F8013CB8
:100F5000302BF5D0B8F1000F09DD02EB080313F8D0
:100F6000013C2E2B03D1090701D4A8F10108002D63
:100F700005DD3E2102F808106D1E08F10108407CD5
:100F8000002E02F8080008F1010804DA2D2076424C
:100F900002F8080002E02B2002F808000A214FF4B2
:100FA0007A70864208F101080BDB96FBF0F33033D0
:100FB00002F8083096FBF0F308F1010800FB136615
:100FC00001E0642E0CDB642096FBF0F3303302F872
:100FD000083096FBF0F308F1010800FB136601E00E
:100FE0000A2E06DB96FBF1F0303002F8080008F11B
:100FF000010896FBF1F001FB1060303002F80800A8
:10100000A16908F1010808EB050202EB0A00081AC1
:10101000A0612078C00602D42046FFF75DF9216A5E
:1010200008AE01EB0A00206204E0D4E9012116F8C1
:10103000010B9047BAF1010AF7D22078C00602D519
:101040002046FFF749F96E4609E016F8010B3E28E5
:101050000FD0D4E901219047206A401C2062B8F1EA
:101060000108F2D22046FFF74DF909B00320BDE890
:10107000F08F206A2844206203E0D4E90121302067
:1010800090476D1EEBD3F8E72E17000002FCFFFF20
:1010900010B5436913B1AFF3008001E0FFF755F9D4
:1010A000012010BD127800F124010A7000224A705C
:1010B0000122EDE711684FF0FF32E9E710B543690F
:1010C00013B1AFF3008001E0FFF7D6F9012010BDA6
:1010D000128800F1240182840022C2840122EDE7FB
:1010E00011684FF0FF32E9E72DE9F04116460C4652
:1010F000054600F043F8036893F80101012807D082
:10110000FF2C12D8185D80B101202C70BDE8F08151
:10111000D3F807013246214603F20713C7182846C1
:10112000BC46BDE8F041002360474FF0FF30EDE7DB
:10113000754600F0EBF8AE4605006946534620F0D0
:101140000700854618B020B5FFF780F8BDE82040BD
:101150004FF000064FF000074FF000084FF0000B73
:10116000AC46ACE8C009ACE8C009ACE8C009ACE8E2
:10117000C00921F007018D467047000010B500F04E
:1011800005F8001D10BD00BFBD13000000487047EA
:10119000200000202DE9F0411F4604460326016887
:1011A000072A01F4006004DB08B116A505E016A5C6
:1011B00003E008B115A500E015A521F0100020609E
:1011C000A069C01EA0610FB1401EA0612046FFF7BC
:1011D00083F84FB1D4E9012138469047206A401C7A
:1011E0002062C01C206206E0206AFAE7D4E90121EF
:1011F00015F8010B9047761EF8D22046FFF782F8CB
:10120000BDE8F0814E414E006E616E00494E4600D1
:10121000696E66002DE9F047814616468AB035486A
:1012200078440DC88DE80D0032487844801C03AC2A
:101230000DC884E80D0041F69B300844372190FB2F
:10124000F1F290FBF1F5A5F1800501FB12041B3CC6
:1012500002D56442012000E00020DFF898A080461B
:101260000027FA44AAF1BE0A0EE0E0070AD032468F
:10127000684607EB470101230AEB810100F0F9FF03
:101280008DE8070064107F1C002CEED1194F7F44BD
:10129000AE3F19E0E80715D007EB04100DF1180A6E
:1012A00090E80E008AE80E00C068F04201D198195B
:1012B00008903246012306A903A800F0DAFF03AB29
:1012C00083E807006D10641C002DE3D14FF001038B
:1012D00032466946B8F1000F03A802D000F0B4FF0F
:1012E00001E000F0C6FFC9E90001C9F808200AB012
:1012F000BDE8F0873814000010B50446AFF3008055
:101300002046BDE81040FEF78CBF00000048704743
:10131000000000204FF0013C50F8042B51F8043B32
:101320009A4221D1A2EB0C03934313EACC1317D1B9
:1013300050F8042B51F8043B9A4215D1A2EB0C0350
:10134000934313EACC130BD150F8042B51F8043B10
:101350009A4209D1A2EB0C03934313EACC13DBD0DE
:101360004FF00000704700BFD01A01BAB1FA81F106
:1013700001F0180122FA01F0CB40DBB2C0B2C01A72
:10138000C1F120012CFA01F3D11A914311EAC311E2
:10139000E6D1704701491820ABBEFEE726000200E7
:1013A00070470000FEE70000FEE70000FEE70000D7
:1013B000FEE70000FEE70000FEE70000FEE7000099
:1013C0007047000010B582B041F20400C4F2020080
:1013D00050F8041C41F0010140F8041C50F8041CB2
:1013E0008907FBD5016801F00C01082938D10021DB
:1013F0000191019A4F2A05D8019A01320192019A6E
:10140000502AF9D302680092009A22F0F00200926A
:10141000009A42F080020092009A026001910199C4
:101420004F2905D801990131019101995029F9D32A
:1014300001680091009921F0F0010091009941F0BC
:1014400090010091009901600021019101994F29BB
:1014500006D800BF01990131019101995029F9D3B2
:101460000168002421F0030101600194019AD2086F
:101470007C2A06D8019A01320192019AB2F57A7F4C
:10148000F8D350F8042C4FF6FF7ECFF6F66E02EA42
:101490000E0240F8042C02680C23CEF6FF031A401B
:1014A000026050F8042C4FF6FF7C02EA0E0240F86E
:1014B000042C50F8042CCFF2007C22F4802240F857
:1014C000042C02684FF6FE7302EA0C02026050F828
:1014D000042C02EA0E0240F8042C4FF41F02426072
:1014E00050F8042C42F4803240F8042C50F8041CCC
:1014F000013B44F10002890301D4002AF6D150F8DF
:10150000041C890301D400BFFEE701680CF5430207
:10151000016001680160016841F480610160016857
:1015200021F440310160016841F4403101600168FB
:1015300011400160016841F0006141F42011016037
:1015400050F8041C41F0807140F8041C50F8041C51
:101550008901FBD501680191019921F003010191F5
:10156000019941F00201019101990160016801F0C6
:101570000C010829FAD14FF00060002100F046FA72
:1015800002B010BD70B50026C4F20206A6F54845AB
:1015900040F20431C0F20401284600F0A3FB012808
:1015A00018BF70BD2846042100F088FB284600F0D3
:1015B00031FB3046042100F075F940F26005C2F2BB
:1015C0000005298840F2C00C081A00F2011083B20D
:1015D000C2F2000C288003EB0C01686D4A1EEC6D12
:1015E000426000F10802A24208BF2A1DB3F5E06F75
:1015F0006A6591BF1160C2F800C0002028803046A3
:10160000042100F0A1F83046042140F2011200F05C
:1016100039F9686D04210268304600F023F930463C
:10162000042100F0A3F870BDFEE70000F0B587B01C
:10163000054640F20E6000F04FFA40F2026000F002
:101640004BFA43F60004C4F20104A4F540563046B8
:10165000182103224FF4007300F034F930460421BE
:1016600003224FF4806300F02DF9204600F0DAFAEF
:101670002046294600F098FA20460021002600F076
:1016800043FB2046002100F05BFB2046002100F0D8
:1016900049FB2046082100F04DFB2046042100F0C4
:1016A0003BFB2046402100F0F9FA4FF4A06000F027
:1016B000A3F925200021002200F06EF920464FF406
:1016C000417100F003FB40F26000C2F2000040F202
:1016D000C007C2F20007014641F8047F00F14C0246
:1016E000C0E91511C26506804FF4A06000F0F4F95E
:1016F0000025C4F202052846042100F05BF843F6F9
:101700000400C4F201008DE8C10040F20110049011
:101710004FF4005005904FF48070ADF818006A4601
:101720002846042103968DF81A6000F061F82846D7
:10173000042100F02DF82846042100F017F8204677
:1017400000F0B6FA07B0F0BD40F20042C4F2020267
:10175000904202D1052900D3FEE701EB810100EBA5
:101760008100816821F001018160704740F20042F0
:10177000C4F20202904202D1052900D3FEE701EB38
:10178000810100EB8100816841F0010181607047B7
:1017900040F20042C4F20202904202D1052900D375
:1017A000FEE701EB810100EB8100816821F020015F
:1017B0008160704740F20042C4F20202904202D1BE
:1017C000052900D3FEE701EB810200EB820293685A
:1017D000890023F00103936000239360D3601361B9
:1017E00053610F22436802FA01F1194341607047C7
:1017F00040F20043C4F20203984202D1052900D30B
:10180000FEE780B5136801EB810100EB8100036105
:1018100091684161118AC1608168536821F47C5CE0
:10182000D168D2F814E043EA0C03194341EA0E01EF
:101830008160117E8368012923F0400308BF403393
:101840008360517E8368012923F0800308BF8033C1
:101850008360917E8268002922F0100218BF103246
:10186000826080BD40F20043C4F20203984202D17C
:10187000052900D3FEE701EB810100EB8100426105
:101880007047000040F20043C4F20203984202D1C4
:10189000052900D3FEE701EB810192B200EB810044
:1018A000C260704740F20042C4F20202904202D18C
:1018B000052900D3FEE701EB810100EB8100C06840
:1018C000704700002DE9F047CF0601F00F0C00F142
:1018D000100E00F1140A4FF000044FF001094FF010
:1018E0000F084FF0000748BF4CEA020C0EE000BFA3
:1018F000166008FA04F225EA02020CFA04F52A43FB
:1019000002600137082F04F104040CD009FA07F231
:1019100012EA0306F5D0056828295246E8D048297E
:10192000E7D17246E4E7082400254FF001094FF0A3
:101930000F080FE0176008FA05F226EA02020CFA17
:1019400005F6324342600134102C05F1040508BF4E
:10195000BDE8F08709FA04F212EA0307F3D04668FB
:1019600028295246E6D04829E5D17246E2E7000030
:1019700080B54FF46120FFF759FE04A030213022DA
:10198000302300F0D9F8002080BD00BF2564202559
:1019900063202578000000004EF60C5CCEF2000CAF
:1019A000DCF8003003F4E063A3F54073B3F5A06FF7
:1019B00001D21B0A06E040F20053C0F2FA53CCF801
:1019C0000030022301FA03FCC3F104030F21D940C4
:1019D00011404EF2001241EA0C01CEF20002090160
:1019E000831883F8001300F01F01012303FA01F1AB
:1019F000401142F82010704740F080604EF60C51C4
:101A000040F0FD70CEF20001086070474FF6807222
:101A1000C1F6FF72114008434EF60851CEF20001A4
:101A20000860BFF34F8F704710B541F20402C4F253
:101A300002021368014603F00C00082841F200205E
:101A4000C0F27A0019D1136840F6001CDB03C0F223
:101A50003D0C03D513689B0358BF84461068136878
:101A6000C0F3834E102000EAD350704401230F28A6
:101A700038BF0223184400FB0CF01368D2F800C0F2
:101A8000146803290FD8C3F303130FA2D25C42F2E8
:101A9000746E20FA02F3C0F6000EDFE801F01302C4
:101AA000060D184610BD002010BDCCF302201EF814
:101AB000000023FA00F010BDC4F3C2201EF800009D
:101AC00023FA00F010BD00BF00000000000000007D
:101AD000010203040607080941F2000300F01F0198
:101AE0008009C4F202034FF0010CC2580CFA01F154
:101AF0001143C1507047000041F2000300F01F0184
:101B00008009C4F202034FF0010CC2580CFA01F133
:101B100022EA0101C150704741F2000300F01F01A9
:101B20008009C4F202034FF0010CC2580CFA01F113
:101B30001143C1507047000083B0F0B582B040F649
:101B4000C005844607A8C2F200050EC043F6000493
:101B500007AA28466146C4F201040192FEF788FBF9
:101B60002878A8B10026002704E000BFA95D204620
:101B700000F054F82046072100F0A0F80128F5D124
:101B800001372846BEB2FEF785FBB042F2D800BF4F
:101B90002046072100F092F80128F9D102B0BDE8F3
:101BA000F04003B070470000B0B5044644F6FF3083
:101BB000C4F200000D4684424FF0000013DD44F6ED
:101BC0000041C4F200018C4219D045F20001C4F278
:101BD00000018C4213D043F60001C4F201018C4293
:101BE00010D103200CE044F20041C4F200018C4209
:101BF00005D044F60001C4F200018C4202D102205B
:101C0000FFF712FF00EB5500B0FBF5F080B2A060CB
:101C1000B0BD000040686FF35F2070476FF35F2135
:101C20004160704710B544F6FF31C4F200018842AC
:101C300015DD44F60041C4F2000188421ED045F291
:101C40000001C4F2000188421BD043F60001C4F237
:101C50000101884218BF10BD40F20E3416E044F274
:101C60000041C4F2000188420ED044F60001C4F2E3
:101C70000001884210D140F2124407E040F21344C0
:101C800004E040F2144401E040F211442046FFF722
:101C900043FF2046FFF730FF10BD0000426901F00E
:101CA000400122F0400242614269114341617047A4
:101CB000C16841F40051C160704700008A091058A2
:101CC00001F01F01C84000F00100704701F01F0241
:101CD000C1F389114FF0010C0B580CFA02F21A43B0
:101CE0000A507047C1F3891252F800C08A0D10588B
:101CF00001F01F03C1F30441C8402CFA03F108406E
:101D000000F0010070470000C26822F4C062C260A7
:101D1000C2681143C1607047C26822F004021143D7
:101D2000C1607047026922F44052026102691143A6
:101D300001617047C26822F008021143C160704718
:101D4000C26822F48052C260C2681143C160704709
:101D50005FEA400C08BF91F0000F4FEA8C234FEA76
:101D6000C12243EA51514FEA1C5018BF00F5F04020
:101D70004FEA300018BF41F000415FEA6C5C00F0B0
:101D80002980BCF1FF3F08BF40F080407047130C32
:101D900006BF12044FF0100C4FF0000C130E04BFDE
:101DA00012020CF1080C130F04BF12010CF1040C09
:101DB000930F04BF92000CF1020CD30F04BF52002A
:101DC0000CF1010C11464FF00002A0F11F00A0EB36
:101DD0000C00704711F0004F08BF704731F0004110
:101DE0003FF4D5AF0B0C06BF09044FF0100C4FF0B9
:101DF000000C0B0E04BF09020CF1080C0B0F04BF02
:101E000009010CF1040C8B0F04BF89000CF1020CCA
:101E1000CB0F04BF49000CF1010CCCF1200322FAD6
:101E200003F341EA030102FA0CF2A0EB0C0000F10B
:101E30000100704723F07F4720F07F4C80EA0300C9
:101E400000F00040ACEB070303F57C5303F1FF0304
:101E50002DE9804909B44FEA144324EA03484FEAC4
:101E6000154B25EA0B4E0FF2042606EB13273E789E
:101E700003FB0667C7F5000707FB06F64FEAD646E1
:101E800006F102064FEA543707FB066CCCF1005C02
:101E90004FEA1C472CEA074C0CFB06F507FB06F43F
:101EA00004EB15464FEA961649085FEA320234BF42
:101EB00000204FF000404FEAD13706FB07FC4FEA05
:101EC0001C4C0CFB0BF7D21B03FB0CF761EB07015F
:101ED0000CFB0EF7B0EB074072EB17420CFB08F758
:101EE00034BFA2EB0742B2EB074261EB17414FEA66
:101EF0000C444FEA910706FB07FC4FEA1C4C0CFB15
:101F00000BF7B0EBC74072EB573203FB0CF734BF53
:101F1000A2EBC742B2EBC74261EB57310CFB0EF7A5
:101F2000B0EBC70072EB57720CFB08F734BFA2EBA3
:101F3000C702B2EBC70261EB57714FEA816141EA18
:101F400092114FEA826242EA90124FEA806004EBFB
:101F5000CC04039F4FEAD13706FB07FC4FEA1C4C29
:101F60000CFB0BF7D21B03FB0CF761EB07010CFB1F
:101F70000EF7B0EB074072EB17420CFB08F734BFCB
:101F8000A2EB0742B2EB074261EB17414FEA8C55D7
:101F900004EB9C244FEA910706FB07FC4FEA1C4C1C
:101FA0000CFB0BF7B0EBC74072EB573203FB0CF79F
:101FB00034BFA2EBC742B2EBC74261EB57310CFB17
:101FC0000EF7B0EBC70072EB57720CFB08F734BF8B
:101FD000A2EBC702B2EBC70261EB57714FEA816116
:101FE00041EA92114FEA826242EA90124FEA80601F
:101FF00015EB4C2544F100044FEAD13706FB07FCF2
:102000004FEA1C4C0CFB0BF7D21B03FB0CF761EBEC
:1020100007010CFB0EF7B0EB074072EB17420CFB0D
:1020200008F734BFA2EB0742B2EB074261EB17415E
:102030004FEA813141EA92414FEA823242EA9042CC
:102040004FEA80304FEA0C7615EB1C1544F1000482
:1020500048EA03434EEA0B484FF0000EB2EB080C7F
:1020600071EB030724BF624639464EEB0E0E4FF06C
:10207000000B0018524149414BEB0B0BB2EB080C23
:1020800071EB03077BF1000B24BF624639464EEB30
:102090000E0E4FF0000B0018524149414BEB0B0B59
:1020A000B2EB080C71EB03077BF1000B24BF624617
:1020B00039464EEB0E0E51EA020718BF46F00106F4
:1020C00016EB0E7655F1000254F1000103D5BDE880
:1020D0008901BDE80088BDE88901BDE80048B6195E
:1020E000524141EB0101A3F10103704780807F7EE3
:1020F0007D7C7B7A7978777676757473727171707E
:102100006F6E6E6D6C6C6B6A6A696868676666652F
:102110006464636362616160605F5F5E5E5D5D5CBD
:102120005C5B5B5A5A59595858575756565555552E
:102130005454535352525251515050504F4F4F4E8E
:102140004E4D4D4D4C4C4C4B4B4B4A4A4A494949DC
:10215000484848474747474646464545454444441E
:102160004443434343424242424141419C46002B47
:1021700030D477002BD04FEA37071CB503B44FF0AB
:1021800010004FF01001BAF1000F06D0BCF1000FA3
:10219000DCBF40F0080040F008014FF000000FBC29
:1021A000BDE810400BF1010BBBF1010F08BF5FEA66
:1021B000170722BF12F1010211F101014FF0004196
:1021C00043F1000300F0004043EA00007047F9D3F8
:1021D0005708D0E746EA06464FEA164613F1400F85
:1021E0001FDD13F1200FDFBF16430A460021203305
:1021F0005B42BED0C3F1200746EA06464FEA1646C8
:1022000002FA07F746EA070622FA03F2C3F12007AB
:1022100001FA07F742EA070221FA03F14FF000033F
:10222000A7E746EA020646EA06464FEA164646EAA7
:102230000106BCBF46EA0646360C4FF000034FF0DD
:1022400000024FF0000194E72DE9804C70B49A46EB
:10225000934691E8380007C831EA400C48BF34EA99
:10226000430C03D5FFF7E6FDFFF780FFF0BCBDE8A8
:10227000008C2DE9804C70B49A46934691E8380062
:1022800007C810F0804F08BF13F0804F03D100F053
:1022900005F8FFF76BFFF0BCBDE8008C20F07F472E
:1022A00023F07F4C80EA030000F0004007EB0C03B2
:1022B000A3F57C53A3F1FE0392F0000F00F0B3806E
:1022C00095F0000F00F077802DE901494FEA1140A9
:1022D00021EA00484FEA144624EA064700FB06FCC0
:1022E00008FB06F607FB08F818EB06484CEB164C03
:1022F00000FB07F718EB07484CEB17404FEA124B6F
:1023000022EA0B4E4FEA154625EA06470BFB06FC70
:102310000EFB06F607FB0EFE1EEB064E4CEB164CB4
:102320000BFB07F71EEB074E4CEB174B18EB0B089C
:1023300040F1000018EB0E0B58EB000840F10000D4
:102340008F1A4FF000014FF000063CBFC943661BD7
:1023500014BFB5EB040C00213CBFC943F61B4FEA88
:10236000174427EA04454FEA1C472CEA074C04FBB4
:10237000076205FB07F70CFB05F616EB074642EB79
:10238000174204FB0CFC16EB0C4642EB1C421BEB09
:10239000060658EB020241414EEA8E0E46EA9E06C0
:1023A00001D5BDE80189B619524141EB0101A3F104
:1023B0000103BDE801894FEA144524EA05464FEAC6
:1023C000114721EA074C05FB07F406FB07F70CFB56
:1023D00006F111EB074144EB174405FB0CFC11EB34
:1023E0000C4144EB1C444FEA124722EA074C05FB20
:1023F00007F206FB07F70CFB06F616EB074642EB67
:10240000174205FB0CFC16EB0C4642EB1C456A1808
:1024100054F1000148BF7047B619524141EB010128
:10242000A3F10103704795F0000F37D04FEA114236
:1024300021EA02464FEA144724EA074C02FB07F15F
:1024400006FB07F70CFB06F414EB074441EB1741BE
:1024500002FB0CFC14EB0C4441EB1C414FEA15470A
:1024600025EA074C02FB07F506FB07F70CFB06F60F
:1024700016EB074645EB174502FB0CFC16EB0C462A
:1024800045EB1C42121951F1000148BF7047B619C3
:10249000524141EB0101A3F1010370474FEA14459A
:1024A00024EA05464FEA114721EA074C05FB07F1EC
:1024B00006FB07F70CFB06F212EB074241EB174154
:1024C00005FB0CFC12EB0C4251EB1C414FF00006DB
:1024D00048BF7047921841EB0101A3F10103704717
:1024E000490050EAC12018BF04204A0D18BF40F02F
:1024F000010040F2FF72B2EB515F08BF40F00200F2
:10250000012808BF0520704730380A2801D2012071
:10251000704700207047000010B500290AD00878E5
:10252000002807D005487844FEF7F4FE002801D0C3
:10253000002010BD0248784410BD00006601000074
:102540005E01000010B500290AD00878002807D0E5
:1025500005487844FEF7DEFE002801D0002010BDBB
:102560000248784410BD0000560100004E010000F2
:10257000FEF7DABAFEF70EBC000000000000000013
:1025800030313233343536373839414243444546A9
:1025900040305800303132333435363738396162A3
:1025A00063646566403078000400000800000000A5
:1025B00000000002000100001030313233343536A3
:1025C0003738396162636465667870003031323360
:1025D0003435363738394142434445465850000077
:1025E00002400000000000A00000000005400000C4
:1025F000000000C8000000000C4000000000409CEB
:1026000000000000194000000020BCBE00000000D7
:1026100034400000BFC91B8E00000004B54000001C
:10262000504BCFD06607E2CF010000006C410000A4
:102630003E8251AADFEEA73401000000D94200001B
:10264000DCB5A0E23A301F97FFFFFFFFB445000062
:10265000FD25A0C8E9A3C14FFFFFFFFFFF3F00001A
:102660000000008000000000FF3F0000000000802C
:10267000000000000000000001020304B827000869
:1026800000000020C0160000400100081C000000EF
:1026900043000000F8FFFFFF0C0000000E000000E8
:1026A0000F0000002E000000100100004300000099
:1026B000F8FFFFFF00404040404040404040414163
:1026C0004141414040404040404040404040404007
:1026D00040404040400502020202020202020202A1
:1026E000020202020220202020202020202020029E
:1026F000020202020202909090909090101010102E
:1027000010101010101010101010101010101010C9
:10271000020202020202888888888888080808085D
:102720000808080808080808080808080808080829
:102730000202020240000000000000000000000051
:102740000000000000000000000000000000000089
:102750000000000000000000000000000000000079
:102760000000000000000000000000000000000069
:102770000000000000000000000000000000000059
:102780000000000000000000000000000000000049
:102790000000000000000000000000000000000039
:1027A0000000000000000000000000000000000029
:0827B000000000000000000021
:0400000508000105E9
:00000001FF
