:020000040800F2
:10000000600600208501000851020008490200082E
:100010004D02000841020008210400080000000011
:10002000000000000000000000000000590200086D
:100030004502000800000000550200085D020008AB
:100040009F0100089F0100089F0100089F01000810
:100050009F0100089F0100089F0100089F01000800
:100060009F0100089F0100089F0100089F010008F0
:100070009F0100089F0100089F0100089F010008E0
:100080009F0100089F0100089F0100089F010008D0
:100090009F0100089F0100089F0100089F010008C0
:1000A0009F0100089F0100089F0100089F010008B0
:1000B0009F0100089F0100089F0100089F010008A0
:1000C0009F0100089F0100089F0100089F01000890
:1000D0009F0100089F0100089F0100089F01000880
:1000E0009F0100089F0100089F0100080000000018
:1000F0000000000000000000000000000000000000
:100100009F01000800F002F800F02CF80AA090E827
:10011000000C82448344AAF10107DA4501D100F0C2
:1001200021F8AFF2090EBAE80F0013F0010F18BF63
:10013000FB1A43F0010318470C0300001C030000E6
:100140000023002400250026103A28BF78C1FBD8E0
:10015000520728BF30C148BF0B6070471FB51FBD95
:1001600010B510BD00F031F81146FFF7F7FF00F0B1
:1001700059F900F04FF803B4FFF7F2FF03BC00F0A9
:1001800057F800000948804709480047FEE7FEE7A6
:10019000FEE7FEE7FEE7FEE7FEE7FEE7FEE7FEE737
:1001A00004480549054A064B7047000061020008F3
:1001B00005010008600000206006002060020020A9
:1001C00060020020704770477047754600F02CF8B9
:1001D000AE4605006946534620F00700854618B034
:1001E00020B5FFF7DDFFBDE820404FF000064FF0DF
:1001F00000074FF000084FF0000BAC46ACE8C00918
:10020000ACE8C009ACE8C009ACE8C00921F00701BE
:100210008D46704710B50446AFF300802046BDE818
:100220001040FFF7A8BF0000004870470000002002
:1002300001491820ABBEFEE726000200704700000F
:10024000FEE70000FEE70000FEE70000FEE700001A
:10025000FEE70000FEE70000FEE700007047000038
:1002600010B582B041F20400C4F2020050F8041C40
:1002700041F0010140F8041C50F8041C8907FBD52B
:10028000016801F00C01082938D100210191019A7F
:100290004F2A05D8019A01320192019A502AF9D3C6
:1002A00002680092009A22F0F0020092009A42F056
:1002B00080020092009A0260019101994F2905D8AD
:1002C00001990131019101995029F9D301680091F7
:1002D000009921F0F0010091009941F09001009106
:1002E000009901600021019101994F2906D800BFB2
:1002F00001990131019101995029F9D30168002434
:1003000021F0030101600194019AD2087C2A06D8E9
:10031000019A01320192019AB2F57A7FF8D350F82E
:10032000042C4FF6FF7ECFF6F66E02EA0E0240F87E
:10033000042C02680C23CEF6FF031A40026050F82A
:10034000042C4FF6FF7C02EA0E0240F8042C50F811
:10035000042CCFF2007C22F4802240F8042C0268A6
:100360004FF6FE7302EA0C02026050F8042C02EA17
:100370000E0240F8042C4FF41F02426050F8042C87
:1003800042F4803240F8042C50F8041C013B44F144
:100390000002890301D4002AF6D150F8041C890315
:1003A00001D400BFFEE701680CF54302016001685B
:1003B0000160016841F480610160016821F440310D
:1003C0000160016841F44031016001681140016041
:1003D000016841F0006141F42011016050F8041CF3
:1003E00041F0807140F8041C50F8041C8901FBD5D1
:1003F00001680191019921F003010191019941F0F6
:100400000201019101990160016801F00C010829C4
:10041000FAD14FF00060002100F006F802B010BDE4
:10042000FEE70000002070474FF68072C1F6FF72B1
:10043000114008434EF60851CEF200010860BFF3A8
:100440004F8F704754040008000000206006000031
:04045000400100085F
:0400000508000105E9
:00000001FF
