:020000040800F2
:10000000C018002031020008091C0008011C00086B
:10001000051C00082F1B0008AD1E00080000000092
:10002000000000000000000000000000E31C0008C9
:10003000A11B0008000000000B1C0008E51C0008C4
:100040004B0200084B0200084B0200084B0200085C
:100050004B0200084B0200084B0200084B0200084C
:100060004B0200084B0200084B0200084B0200083C
:100070004B0200084B0200084B0200084B0200082C
:100080004B0200084B0200084B0200084B0200081C
:100090004B0200084B0200084B0200084B0200080C
:1000A0004B0200084B0200084B0200084B020008FC
:1000B0004B0200084B0200084B0200084B020008EC
:1000C0004B0200084B0200084B0200084B020008DC
:1000D0004B020008E11D00084B0200084B0200081B
:1000E0004B0200084B0200084B0200080000000011
:1000F0000000000000000000000000000000000000
:100100004B02000800F002F800F082F80AA090E824
:10011000000C82448344AAF10107DA4501D100F0C2
:1001200077F8AFF2090EBAE80F0013F0010F18BF0D
:10013000FB1A43F001031847802B0000902B0000AE
:100140000023002400250026103A28BF78C1FBD8E0
:10015000520728BF30C148BF0B6070476E2900F0BE
:100160005981702900F09B82662902F02385652958
:1001700002F02085672902F01D85612902F01C85A7
:1001800003681B0A28BF41F08001692900F006813D
:10019000642900F00381752900F000816F2900F0C7
:1001A0002882782900F06782E92900F0C381E429D8
:1001B00000F0C081F52900F0BD81EF2900F0258213
:1001C000F82900F066820368DB0928BF41F080014E
:1001D000632900F06987732900F06E87E32900F036
:1001E0007987F32900F07E87002070471FB500F063
:1001F000CBFF04000020002102F0C6FC401C606020
:100200000020002102F0AAFCE0601FBD10B510BD67
:1002100000F08CFF1146FFF7E9FF02F021F901F031
:1002200069F803B4FFF7F2FF03BC01F0B1F8000076
:100230000948804709480047FEE7FEE7FEE7FEE77A
:10024000FEE7FEE7FEE7FEE7FEE7FEE704480549B6
:10025000054A064B70470000E91C0008050100082C
:10026000C0120020C0180020C0140020C0140020BC
:100270001CB50C46064B7B4469460090204600F0B6
:10028000E2F804460020694600F0F0F820461CBD64
:10029000F301000010B5431C02E010F8011B71B11E
:1002A0008107FAD14FF0013202C88C1A8C4314EA4C
:1002B000C211F9D0C01A0A0603D0C01E10BDC01A60
:1002C00010BD0A0401D0801E10BD0902FCD0401EE2
:1002D00010BD70477047704770B504468569006867
:1002E000C10601D5302600E02026C00707D070BD2A
:1002F000D4E9012130469047206A401C20626D1EDF
:10030000F6D570BD70B5044685690078C00707D181
:1003100070BDD4E9012120209047206A401C206252
:100320006D1EF6D570BD09684A0501D540B270470B
:10033000C905FCD500B2704709684A0501D5C0B2AD
:100340007047C905FCD580B2704770B50C460546AC
:10035000012A05D02878800600D5EA69002302E04A
:10036000012305E05B1C934202D2E05C0028F9D136
:10037000A869E618C01AA861286A184428622846A5
:10038000FFF7AAFF04E0D5E9012114F8010B90471B
:10039000B442F8D32846FFF7B5FF70BD2DE9F04110
:1003A0000646002410687529314616A510D0FFF7BF
:1003B000BAFF002802DA404213A507E031688A0735
:1003C00001D512A502E0490704D511A5012401E0D9
:1003D000FFF7B2FF00210A2206F1240709E0B0FB73
:1003E000F2FCB0FBF2F302FB1C00303078541846EC
:1003F000491C0028F3D123462A463046BDE8F04187
:1004000000F061BA000000002D0000002B00000089
:100410002000000011680268006A530501D50870C9
:100420000AE0D30501D5088006E0130603D5C217FC
:10043000C1E9000200E008600120704701694A1C20
:1004400002610878704700B58FB0CDE90131002115
:10045000059105497944CDE903101146684600F03D
:1004600029F90FB000BD0000E5FFFFFF0A6802F8A0
:10047000010B0A60704700002DE9FF5F15468A46B0
:100480000446DFF8AC80F8440027D8E900103E4667
:10049000CDE9001010E03AF816106A4602A800F004
:1004A00025FE411C07D02178890603D5E269391859
:1004B00091420DD80744761C2078800602D5E06969
:1004C000B84205DDAE42E6DB3AF816000028E2D17C
:1004D000A069C01BA0612046FFF7FEFED8E900100E
:1004E000CDE90010002017E03AF818106A4602A87B
:1004F00000F0FCFDB0F1FF3F81460BD000250DF16F
:10050000080B05E0D4E901211BF8050090476D1C9C
:100510004D45F7D308F10100B0428046E4DB206A84
:10052000384420622046FFF7EDFEBDE8FF9F000043
:10053000322700002DE9F0418046D21D22F007024B
:100540000025D2E90002F52915A614D0011E72F18A
:10055000000106DA0023D0EB030063EB020211A6D0
:1005600008E0D8F800108B0701D50FA602E0490774
:1005700001D50EA601251146002408F1240704E048
:1005800000F05CF930323A55641C50EA0102F7D1B0
:100590002B46324621464046BDE8F04100F093B973
:1005A000000000002D0000002B00000020000000D3
:1005B00030B4002100F1240408E002F00705D2085D
:1005C000303542EA4372DB086554491C52EA0305A0
:1005D000F3D10468002310A2250707D5A40600D490
:1005E00021B1C46901230DA2641EC46130BC00F0B6
:1005F0006AB910B5044621461068FFF79DFE024611
:100600002046BDE810400023D2E7D21D22F00701AA
:10061000D1E90023CCE7000000000000300000001A
:10062000F0B40D460188090502D5214C7C4402E056
:100630001F4C7C440E34002100F1240608E002F037
:100640000F071209E75D42EA03721B097754491C40
:1006500052EA0307F3D102780023120704D5702D64
:1006600006D009B1022311342246F0BC00F02BB9A8
:1006700001231034F8E770B504460D462146106892
:10068000FFF75AFE024629462046BDE87040002387
:10069000C6E7D21D22F00703D3E90023C0E70368B1
:1006A000126843F0200303600823C3610023B7E707
:1006B000942500002DE9F05F894604464FF0000ABA
:1006C000DFF874B1FB44C0F820A02046E1688847F9
:1006D000002874D0252806D0D4E901219047206A4B
:1006E000401C2062F1E700265F462046E16888470B
:1006F0002028054607DB312D05D2781910F8200C8B
:1007000008B10643F1E7B00701D526F00406C4F8A6
:100710001CA00027C4F818A02A2D09D0284601F0F3
:10072000E1FC38B304EB8708303DC8F8185019E0F5
:1007300059F8041B204604EB87029161E168884761
:10074000012F054618D1E069002820DA26F020069E
:100750001DE0D8F8180000EB800005EB40003038B1
:10076000C8F818002046E1688847054601F0BAFC41
:100770000028EED1012F0AD02E2D08D12046E168A5
:1007800088477F1C0546022F46F02006C4DBA0697F
:10079000002803DA404246F00106A061F00701D0CC
:1007A00026F010066C2D0BD0682D09D04C2D39D0B9
:1007B0006A2D35D0742D35D07A2D33D016E038E03F
:1007C000E1682F4620468847B842054609D16C2F7C
:1007D00026D04FF48060E1680643204688470546EE
:1007E00004E06C2F1AD04FF4807006430DB3A5F1CE
:1007F0004100192802D8203546F400664A462946A9
:10080000204626604E46FFF7A9FC80B101280BD098
:10081000F61D26F0070000F1080956E74020E4E73E
:100820008020D8E70020D6E706F104094DE72846E6
:1008300052E7206ABDE8F09F2425000030B5B0F1F2
:100840000A024FEA900E71F100034EEA817EB0EB8E
:100850000E0061EB91014FEA101E4EEA017E10EB93
:100860000E0041EB11114FEA102E4EEA016E10EB13
:100870000E0041EB11214FEA104E4EEA014E10EBF3
:100880000E0041EB1141401841F100014FEAD00048
:1008900040EA41704FEAD10110EB80054FEA810434
:1008A00044EA907444EB01046D1944EB0404521BB8
:1008B000A3414FF0000348BF0A3200D530BD401CB1
:1008C00041F1000130BD2DE9F0470D4699469246B1
:1008D000044600F124080168880604D5E06921F087
:1008E0001001216000E00120A84201DD471B00E06B
:1008F0000027A1697A1902EB0900081AA061207883
:10090000C00602D42046FFF7E7FC002608E0D4E941
:1009100001211AF806009047206A401C761C2062CC
:100920004E45F4DB2078C0060AD52046FFF7D4FCFC
:1009300006E0D4E9012130209047206A401C206263
:10094000381EA7F10107F4DC07E0D4E9012118F80B
:1009500005009047206A401C2062281EA5F1010571
:10096000F3DC2046FFF7CEFC2078000602D50220FB
:10097000BDE8F0870120FBE770472DE9FF4F0C46EB
:100980001E464FF0FF378BB0D2E90001DDF86080E2
:100990000A908A46C1F30A5505B93D46002108462A
:1009A0004FF00000BAF1000F00F4400005DA00EB50
:1009B00080004FF4400101EA50004FEA9059B9F12C
:1009C000010F00DDB9460A9850EA4A000ED044F6FD
:1009D0001050A5F2FF3545432F14B8F1000F1ED07B
:1009E0007542291E1EDDC9F100021CE0B8F1010F9D
:1009F0004FF0000001D0302103E0F24305E0215424
:100A0000401CB042FBDB30460022002121540B99F0
:100A1000C1F80880C1E900200FB0BDE8F08FBD1B10
:100A20006D1CDEE74A4600DA694206A800F0F0FBDA
:100A300006AB93E8070003AB83E8070050460A992A
:100A400000F0ADFC8DE80700A0F500501F380090C5
:100A50000398002D0ADD42F21F014A460844002394
:100A600003A90390684600F016FF09E0A0F50050C6
:100A70004A461F38002303A90390684600F020FF70
:100A80008DE807000004000C03D04FF0FF30410850
:100A900000E01046B8F1000F03D000220092154686
:100AA0001EE0751E05D4FFF7C9FE303262556D1E7B
:100AB000F9D5B3460122084302D000227F1C04E08E
:100AC0002078302801D100227F1E002A099784D087
:100AD0001DE0112D07DAFFF7B1FE303262556D1CB3
:100AE00050EA0102F5D1084302D00098C8B10EE0E7
:100AF0000021681E05E0235C625C63542254401EA2
:100B0000491C8142F7DBAB46A81B401E0990002020
:100B100004F80B000B98099AC0F80880C0E9002B74
:100B20007AE711264FF0000857E72DE9F04F884685
:100B30000446D21D22F0070191B0D1E90001CDE9B0
:100B40000A0101F0BBFA02460B98C00F01D02D201C
:100B500007E02068810701D52B2002E0202101EA6F
:100B6000C000032A099001D0072A05DB034641464D
:100B7000204600F00DFB0BE12078800601D5E069EE
:100B800000E00620B8F1650F814606D0B8F1660F87
:100B900018D0B8F1670F70D131E00020B9F1110F12
:100BA000009001DB112301E009F101030AAA01A968
:100BB0000CA8FFF7E2FEDDE90C70002609F1010543
:100BC000834647E001204B4600904FF000470AAAB9
:100BD00001A90CA8FFF7D1FEDDE90DB00C995D4627
:100BE000002610B909F101000D18B9EB050003D476
:100BF000C0F1FF3609F10105A5EB09002BE0B9F1C1
:100C0000010F01DA4FF001090020B9F1110F009036
:100C1000484601DD112300E003460AAA01A90CA8F9
:100C2000FFF7ABFEDDE90C704D46002683462078C9
:100C300000070AD4AB4500DA5D4601A8012D04DDAA
:100C4000411911F8011C302907D04F4502DA17F17C
:100C5000040F04DA012082460FE06D1EEEE7002F3C
:100C600002DCED1B3E4403E0781CA84200DD7D1C45
:100C7000B81B00F1010A4FF000472078000703D4A9
:100C8000AA4501DB4FF0FF3A0021B7F1004F0DF10B
:100C900043088DF8431024D002202B23002F01DAC3
:100CA0007F422D230A21021EA0F1010000DC5FB16A
:100CB00097FBF1FC97FBF1F201FB1C7C17460CF152
:100CC000300C08F801CDEEE7A8F10100037021888F
:100CD000090501D5452100E06521A0F1010800F8D2
:100CE000011C09980FA9A1EB0807FF1D00B1012005
:100CF000411901EBEA70A1693844081A401EA0614D
:100D00002078C00602D42046FFF7E6FA099828B1F9
:100D1000D4E901219047206A401C20622078C00657
:100D200022D52046FFF7D8FA1EE0002E04DBB3459B
:100D300002DD01A8805D00E03020D4E90121904768
:100D4000206A401C2062761CAAF101005FEA000ABA
:100D50000AD100F019FAC0680168405CD4E90121A9
:100D60009047206A401C2062281EA5F10105DCDCAA
:100D700007E0D4E9012118F8010B9047206A401CD4
:100D80002062381EA7F10107F3DC2046FFF7BAFA0C
:100D9000032011B041E600002DE9F04F04460D4656
:100DA000D21D22F0070089B0D0E9009748463946A5
:100DB00001F084F90246F80F01D02D2307E02068E6
:100DC000810701D52B2302E0202101EAC0038DF821
:100DD00020300BB1012000E00020032A824601D020
:100DE000072A04DB2946204600F0D2F93FE12078AB
:100DF000800601D40D2500E0E569C7F30A560D2DE4
:100E000049DA00214FEA175B08464FF00000002F37
:100E100000F4400007DA00EB80004FF4400100EBE3
:100E2000D07001EA60008115012901DD4FF0FF312A
:100E300000224FEA850CBCF1180F06D31346ACF123
:100E400018004FF08052C24003E04FF4801323FAA1
:100E50000CF30CF10C0CBCF1200F04D3ACF1200C02
:100E600009FA0CF001E007FA0CF000294FF00048F5
:100E700001DD18B90FE00ED140450CD319EB020982
:100E80005F4121B9404502D19F4329EA0209BBEBEA
:100E9000175F00D0761C2088000502D57B48784477
:100EA00002E07A487844193808AA302302F80A3058
:100EB000037C0AF10101002E0AF1020A53546A462A
:100EC00002DC4FF0300101E04FF031014FF001083A
:100ED0008DF8001002D0A6F2FF3603E059EA470170
:100EE00000D06B4E002D02DC2178090704D54FF0AD
:100EF00002082E218DF80110C44600210BE0C7F333
:100F000003433F01C35C491C6D1E02F808300529EC
:100F100008F1010801DA002DF1DC00210CE000EB02
:100F20001973491C1B786D1E082902F808304FEA16
:100F3000091908F1010801DA002DF0DC21688B069F
:100F400002D516E0A8F10108E04505DD02EB080333
:100F500013F8013C302BF5D0B8F1000F09DD02EB9E
:100F6000080313F8013C2E2B03D1090701D4A8F183
:100F70000108002D05DD3E2102F808106D1E08F164
:100F80000108407C002E02F8080008F1010804DA8C
:100F90002D20764202F8080002E02B2002F808001B
:100FA0000A214FF47A70864208F101080BDB96FBA8
:100FB000F0F3303302F8083096FBF0F308F1010843
:100FC00000FB136601E0642E0CDB642096FBF0F35B
:100FD000303302F8083096FBF0F308F1010800FB0B
:100FE000136601E00A2E06DB96FBF1F0303002F8C2
:100FF000080008F1010896FBF1F001FB10603030A9
:1010000002F80800A16908F1010808EB050202EBEB
:101010000A00081AA0612078C00602D42046FFF713
:101020005BF9216A08AE01EB0A00206204E0D4E912
:10103000012116F8010B9047BAF1010AF7D2207886
:10104000C00602D52046FFF747F96E4609E016F8BC
:10105000010B3E280FD0D4E901219047206A401CA3
:101060002062B8F10108F2D22046FFF74BF909B02F
:101070000320BDE8F08F206A2844206203E0D4E911
:101080000121302090476D1EEBD3F8E76E1D000064
:1010900002FCFFFF10B5436913B1AFF3008001E01C
:1010A000FFF753F9012010BD127800F124010A70F6
:1010B00000224A700122EDE711684FF0FF32E9E7A4
:1010C00010B5436913B1AFF3008001E0FFF7D4F925
:1010D000012010BD128800F1240182840022C28404
:1010E0000122EDE711684FF0FF32E9E770B51646CF
:1010F0000C46054600F040F8036893F8010101280A
:1011000006D0FF2C0FD8185D68B101202C7070BD7F
:10111000D3F807013246214603F207130344284659
:10112000BDE8704018474FF0FF3070BD754600F0C5
:10113000EBF8AE4605006946534620F007008546A9
:1011400018B020B5FFF782F8BDE820404FF0000648
:101150004FF000074FF000084FF0000B21F007019F
:10116000AC46ACE8C009ACE8C009ACE8C009ACE8E2
:10117000C0098D467047000010B500F005F8001D4D
:1011800010BD00BF051A0000004870478012002003
:101190002DE9F0411F46044603260168072A01F4A1
:1011A000006004DB08B116A505E016A503E008B150
:1011B00015A500E015A521F010002060A069C01E53
:1011C000A0610FB1401EA0612046FFF785F84FB126
:1011D000D4E9012138469047206A401C2062C01C97
:1011E000206206E0206AFAE7D4E9012115F8010B34
:1011F0009047761EF8D22046FFF784F8BDE8F081CC
:101200004E414E006E616E00494E4600696E6600AA
:101210002DE9F047814616468AB0354878440DC816
:101220008DE80D0032487844801C03AC0DC884E87A
:101230000D0041F69B300844372190FBF1F290FB02
:10124000F1F5A5F1800501FB12041B3C02D56442B7
:10125000012000E00020DFF898A080460027FA4433
:10126000AAF1BE0A0EE0E0070AD03246684607EB54
:10127000470101230AEB810100F022FB8DE8070002
:1012800064107F1C002CEED1194F7F44AE3F19E053
:10129000E80715D007EB04100DF1180A90E80E00CE
:1012A0008AE80E00C068F04201D1981908903246D1
:1012B000012306A903A800F003FB03AB83E80700A2
:1012C0006D10641C002DE3D14FF0010332466946D6
:1012D000B8F1000F03A802D000F0DDFA01E000F041
:1012E000EFFAC9E90001C9F808200AB0BDE8F087A3
:1012F000801A000010B50446AFF300802046BDE818
:101300001040FEF78EBF00000048704760120020BA
:101310004FF0013C50F8042B51F8043B9A4221D184
:10132000A2EB0C03934313EACC1317D150F8042B10
:1013300051F8043B9A4215D1A2EB0C03934313EAF4
:10134000CC130BD150F8042B51F8043B9A4209D12D
:10135000A2EB0C03934313EACC13DBD04FF0000055
:10136000704700BFD01A01BAB1FA81F101F018013B
:1013700022FA01F0CB40C1F12001DBB2C0B2C01AA9
:101380002CFA01F3D11A914311EAC311E6D1704747
:1013900001491820ABBEFEE72600020070475FEA55
:1013A000400C08BF91F0000F4FEA8C234FEAC12296
:1013B00043EA51514FEA1C5018BF00F5F0404FEA84
:1013C000300018BF41F000415FEA6C5C00F02980FA
:1013D000BCF1FF3F08BF40F080407047130C06BFD0
:1013E00012044FF0100C4FF0000C130E04BF120249
:1013F0000CF1080C130F04BF12010CF1040C930F35
:1014000004BF92000CF1020CD30F04BF52000CF188
:10141000010C11464FF00002A0F11F00A0EB0C00E0
:10142000704711F0004F08BF704731F000413FF4A2
:10143000D5AF0B0C06BF09044FF0100C4FF0000C99
:101440000B0E04BF09020CF1080C0B0F04BF0901BD
:101450000CF1040C8B0F04BF89000CF1020CCB0FB4
:1014600004BF49000CF1010CCCF12003A0EB0C00EF
:1014700022FA03F302FA0CF241EA030100F101003F
:10148000704720F07F4C80EA030023F07F47ACEBED
:10149000070303F57C5300F0004003F1FF032DE93F
:1014A00080494FEA154B09B44FEA144325EA0B4E25
:1014B00024EA03480FF2042606EB132749083E7876
:1014C0005FEA320203FB0667C7F5000707FB06F673
:1014D0004FEA54374FEAD64606F1020607FB066C80
:1014E000CCF1005C4FEA1C472CEA074C07FB06F4E2
:1014F0000CFB06F504EB15464FEA961634BF0020A8
:101500004FF000404FEAD13706FB07FC4FEA1C4C76
:101510000CFB0BF7D21B03FB0CF761EB07010CFB79
:101520000EF7B0EB074072EB17420CFB08F734BF25
:10153000A2EB0742B2EB074261EB17414FEA0C44C2
:101540004FEA910706FB07FC4FEA1C4C0CFB0BF71C
:10155000B0EBC74072EB573203FB0CF734BFA2EB82
:10156000C742B2EBC74261EB57310CFB0EF7B0EB51
:10157000C70072EB57720CFB08F734BFA2EBC7022F
:10158000B2EBC70261EB5771039F4FEA816141EAF9
:10159000921104EBCC044FEAD1374FEA826206FB8A
:1015A00007FC42EA90124FEA80604FEA1C4C0CFBA9
:1015B0000BF7D21B03FB0CF761EB07010CFB0EF7DB
:1015C000B0EB074072EB17420CFB08F734BFA2EBFD
:1015D0000742B2EB074261EB17414FEA8C554FEAE5
:1015E000910704EB9C2406FB07FC4FEA1C4C0CFB08
:1015F0000BF7B0EBC74072EB573203FB0CF734BF6D
:10160000A2EBC742B2EBC74261EB57310CFB0EF7BE
:10161000B0EBC70072EB57720CFB08F734BFA2EBBC
:10162000C702B2EBC70261EB577115EB4C254FEACD
:10163000816141EA92114FEA82624FEAD13742EA70
:10164000901206FB07FC44F100044FEA80604FEA69
:101650001C4C0CFB0BF7D21B03FB0CF761EB0701D7
:101660000CFB0EF7B0EB074072EB17420CFB08F7D0
:1016700034BFA2EB0742B2EB074261EB174115EB17
:101680001C154FEA813141EA92414FEA823242EA27
:1016900090424FEA80304FEA0C7644F1000448EA69
:1016A00003434EEA0B484FF0000EB2EB080C71EB0F
:1016B000030724BF624639464EEB0E0E4FF0000B77
:1016C0000018524149414BEB0B0BB2EB080C71EB8C
:1016D00003077BF1000B24BF624639464EEB0E0E2A
:1016E0004FF0000B0018524149414BEB0B0BB2EB92
:1016F000080C71EB03077BF1000B24BF62463946EF
:101700004EEB0E0E51EA020718BF46F0010616EB2B
:101710000E7655F1000254F1000103D5BDE88901B0
:10172000BDE80088BDE88901BDE80048B61952410E
:1017300041EB0101A3F10103704780807F7E7D7C36
:101740007B7A7978777676757473727171706F6E53
:101750006E6D6C6C6B6A6A696868676666656464FE
:10176000636362616160605F5F5E5E5D5D5C5C5B88
:101770005B5A5A59595858575756565555555454F7
:10178000535352525251515050504F4F4F4E4E4D55
:101790004D4D4C4C4C4B4B4B4A4A4A4949494848A1
:1017A00048474747474646464545454444444443E1
:1017B00043434342424242414141002B9C4630D484
:1017C00077002BD01CB54FEA370703B44FF0100059
:1017D0004FF01001BAF1000F06D0BCF1000FDCBFD2
:1017E00040F0080040F008014FF000000FBCBDE8D9
:1017F00010400BF1010BBBF1010F08BF5FEA1707A7
:1018000022BF12F1010211F101014FF0004143F139
:10181000000300F0004043EA00007047F9D3570886
:10182000D0E746EA064613F1400F4FEA16461FDDA1
:1018300013F1200FDFBF16430A46002120335B421D
:10184000BED0C3F1200746EA064602FA07F74FEA80
:10185000164646EA0706C3F1200722FA03F201FA08
:1018600007F721FA03F14FF0000342EA0702A7E766
:1018700046EA020646EA06464FEA164646EA0106E8
:10188000BCBF46EA0646360C4FF000034FF000029C
:101890004FF0000194E72DE9804C9A46934670B4CE
:1018A00091E8380007C831EA400C48BF34EA430CDD
:1018B00003D5FFF7E6FDFFF780FFF0BCBDE8008C25
:1018C0002DE9804C9A46934670B491E8380007C8D9
:1018D00010F0804F08BF13F0804F03D100F005F8DF
:1018E000FFF76BFFF0BCBDE8008C20F07F4780EA7B
:1018F000030023F07F4C07EB0C03A3F57C5300F0AF
:101900000040A3F1FE0392F0000F00F0B38095F0C9
:10191000000F00F077802DE901494FEA11404FEAAE
:10192000144621EA004800FB06FC24EA064708FBAF
:1019300006F607FB08F800FB07F718EB06484CEB28
:10194000164C4FEA124B18EB07484FEA15464CEB82
:10195000174022EA0B4E0BFB06FC25EA06470EFB5E
:1019600006F607FB0EFE0BFB07F71EEB064E4CEBD5
:10197000164C4FF000061EEB074E4CEB174B18EBC6
:101980000B0840F1000018EB0E0B58EB000840F17B
:1019900000008F1A4FF000013CBFC943661B14BF03
:1019A000B5EB040C00213CBFC943F61B4FEA1744BA
:1019B0004EEA8E0E27EA04454FEA1C4704FB0762F5
:1019C0002CEA074C05FB07F70CFB05F604FB0CFCA7
:1019D00016EB074642EB174216EB0C4642EB1C4255
:1019E0001BEB060658EB0202414146EA9E0601D572
:1019F000BDE80189B619524141EB0101A3F1010390
:101A0000BDE801894FEA14454FEA114724EA05462B
:101A100021EA074C05FB07F406FB07F70CFB06F170
:101A200005FB0CFC11EB074144EB17444FEA12474E
:101A300011EB0C4144EB1C4422EA074C05FB07F276
:101A400006FB07F70CFB06F605FB0CFC16EB07463E
:101A500042EB174216EB0C4642EB1C456A1854F158
:101A6000000148BF7047B619524141EB0101A3F193
:101A70000103704795F0000F37D04FEA11424FEA4B
:101A8000144721EA024624EA074C02FB07F106FB51
:101A900007F70CFB06F402FB0CFC14EB074441EBCC
:101AA00017414FEA154714EB0C4441EB1C4125EA62
:101AB000074C02FB07F506FB07F70CFB06F602FBDB
:101AC0000CFC16EB074645EB174516EB0C4645EBB1
:101AD0001C42121951F1000148BF7047B61952411A
:101AE00041EB0101A3F1010370474FEA14454FEAAE
:101AF000114724EA054621EA074C05FB07F106FBDE
:101B000007F70CFB06F24FF0000605FB0CFC12EB8E
:101B1000074241EB174112EB0C4251EB1C4148BF0D
:101B20007047921841EB0101A3F10103704700BF18
:101B3000FEE7000000B587B04FF4A06000F0D4FDD0
:101B40000421144800F020FB13480090002001906D
:101B5000124802900020039040F2011004904FF4CC
:101B60000050059000208DF8180001208DF8190014
:101B700000208DF81A006A460421064800F03CFB5C
:101B80000421044800F0E7FA0421024800F0CAFAF0
:101B900007B000BD000002400438014000020020F0
:101BA000704710B5042000F08FFE10BD00B503464D
:101BB00003E04FF47A7000F006F8181EA3F101015B
:101BC0008BB2F6D100BD6C2141434FF0E022516150
:101BD000002191611146096941F00101116100BFC5
:101BE0004FF0E021096901F480310029F8D04FF06D
:101BF000E021096921F001014FF0E02211617047F5
:101C000000BFFEE700BFFEE77047704700B587B032
:101C100040F20C6000F068FD40F2026000F064FDEC
:101C2000A02303221821114800F0C4FB4023032203
:101C300004210E4800F0BEFB0D4800F091FD4FF46A
:101C4000827000900020019002904FF40070039089
:101C500000200490059006906946054800F0B4FD08
:101C6000034800F071FD07B000BD0000000801400E
:101C70000030014070B505460E46002405E0FF2007
:101C800000F006F82855601C84B2B442F7DB70BD42
:101C900010B5044600BF02210A4800F08DFD01285E
:101CA000F9D12146074800F058FD00BF0121054841
:101CB00000F082FD0128F9D1024800F04AFDC0B2CF
:101CC00010BD00000030014070B505460E460024EE
:101CD00004E0285DFFF7DCFF601C84B2B442F8DB4F
:101CE00070BD70477047000008B53048006840F08C
:101CF00001002E49086000BF2C48006800F0020077
:101D00000028F9D000BF2948406840F080002749EA
:101D100048600020009002E00098401C009000986D
:101D20005028F9D32148406840F090001F4948608E
:101D30000020009002E00098401C0090009850287D
:101D4000F9D300BF1948406820F0030017494860E4
:101D5000084600681649084014490860084640686B
:101D60001449084011494860084600681049084075
:101D70000E4908600846006820F480200860084684
:101D800040680D490840094948600846006808490C
:101D90000840064908604FF41F00886000F090FD7D
:101DA00000214FF0006000F001FC08BD001002406F
:101DB000FFFFF6FE0C00FFE8FFFF00F70648011FDB
:101DC000486588654830C8650448496D086000204A
:101DD0000149091F088070470412002000020020FA
:101DE00010B52D492D4800F074FE002852D0042172
:101DF0002A4800F052FE294800F0F0FD042128484E
:101E000000F0C3FA40F20111081A26490988084473
:101E10002449088008460088401E23490844214977
:101E2000496D48601F48406D08301E4948650846A6
:101E3000406DC96D884203D11A48001D011F4865D5
:101E400018480088C0F50060FF2807DD15480088A5
:101E5000154908441349496D086006E012481149C4
:101E6000496D086000200F49088004210C4800F0EB
:101E700040F940F201120421094800F073FA0948C0
:101E8000406D04210268064800F04DFA0421044820
:101E900000F048F910BD00000403040000380140C0
:101EA00000000240001200200002002000BFFEE7F8
:101EB00010B5044640F20E6000F016FC40F20260DD
:101EC00000F012FC4FF40073032218211F4800F0A9
:101ED00071FA4FF48063032204211C4800F06AFA6F
:101EE0001B4800F085FD2146194800F02FFD002118
:101EF000174800F00AFE0021154800F026FE0021D8
:101F0000134800F012FE0821114800F016FE0421CB
:101F10000F4800F002FE40210D4800F0B1FD4FF4E3
:101F2000A06000F039FB00221146252000F0DEFA07
:101F30004FF44171064800F0BFFDFFF73FFFFFF788
:101F4000F9FD034800F0A4FD10BD000000080140A9
:101F50000038014010B500F099F81021054800F054
:101F600025FA0620FFF794FE1021024800F020FA1F
:101F700010BD00000008014038B50446D8208DF897
:101F80000000A0B28DF801002004000A8DF80200C4
:101F90002004C0B28DF8030000F078F8FFF7DAFFF4
:101FA0001021074800F002FA04216846FFF78CFE72
:101FB0001021034800F0FCF900F068F838BD00007B
:101FC0000008014010B540F2026000F08DFB1023C4
:101FD00003221946044800F0EDF91021024800F0F0
:101FE000E7F9FFF713FE10BD0008014038B50546BC
:101FF0000C4602208DF80000C4F30F208DF801007C
:1020000024F07F408DF802002002C0B28DF803005A
:1020100000F03CF8FFF79EFF1021084800F0C6F9D9
:1020200004216846FFF750FE4FF480712846FFF701
:102030004BFE1021014800F0BBF938BD00080140FB
:10204000F8B506460C46154603208DF80000200C16
:102050008DF80100200A8DF80200E0B28DF803002F
:1020600000F014F81021084800F0A0F90421684697
:10207000FFF72AFEA9B23046FFF7FCFD1021024807
:1020800000F096F9F8BD00000008014010B500BF4F
:102090001021094800F08AF90520FFF7F9FDFF201B
:1020A000FFF7F6FD04461021034800F081F904F023
:1020B00001000028ECD110BD00080140490050EAA1
:1020C000C12018BF04204A0D18BF40F0010040F2A3
:1020D000FF72B2EB515F08BF40F00200012808BF59
:1020E0000520704730380A2801D2012070470020AF
:1020F000704770B505460C462146284600F026F983
:1021000008B900BFFEE704EB8400810005F1080078
:10211000405820F0010104EB8400820005F1080022
:10212000815070BD70B505460C462146284600F02A
:102130000DF908B900BFFEE704EB8400810005F14A
:102140000800405840F0010104EB8400820005F1D2
:102150000800815070BD70B505460C4621462846E2
:1021600000F0F4F808B900BFFEE704EB840081003A
:1021700005F10800405820F0200104EB84008200A3
:1021800005F10800815070BD70B504460D46294622
:10219000204600F0DBF808B900BFFEE705EB85003C
:1021A000810004F10800405820F0010105EB850092
:1021B000820004F108008150002105EB85008200B7
:1021C00004F10800815005EB8500820004F10C0049
:1021D000815005EB8500820004F11000815005EB71
:1021E0008500820004F1140081506068AA000F216C
:1021F00091400843606070BD2DE9F04104460D46F2
:1022000016462946204600F0A1F808B900BFFEE7AF
:1022100005EB8500820004F110003168815005EB68
:102220008500820004F11400B1688150308A81B2C7
:1022300005EB8500820004F10C00815005EB850060
:10224000810004F10800475827F47C57F168706852
:10225000084371690843074305EB8500810004F1D9
:1022600008004750307E01280ED105EB8500810023
:1022700004F10800405840F0400105EB8500820061
:1022800004F1080081500DE005EB8500810004F1A8
:102290000800405820F0400105EB8500820004F161
:1022A00008008150707E01280ED105EB8500810069
:1022B00004F10800405840F0800105EB85008200E1
:1022C00004F1080081500DE005EB8500810004F168
:1022D0000800405820F0800105EB8500820004F1E1
:1022E00008008150B07E70B905EB8500810004F1D3
:1022F0000800405820F0100105EB8500820004F131
:10230000080081500DE005EB8500810004F1080014
:10231000405840F0100105EB8500820004F10800F0
:102320008150BDE8F08170B506460C461546214641
:10233000304600F00BF808B900BFFEE704EB84005C
:10234000810006F11400455070BD000002460120D6
:10235000034B9A4202D1042900DD0020704700009F
:102360000004024070B506460C461546214630462C
:10237000FFF7ECFF08B900BFFEE7A9B204EB840049
:10238000820006F10C00815070BD70B505460C4608
:1023900021462846FFF7DAFF08B900BFFEE704EB45
:1023A0008400810005F10C00405870BD4161704708
:1023B00001617047F0B5044616460025002201F081
:1023C0000F0501F0100707B1354300201EE001277B
:1023D00087401F40C7B122684FEA800C0F2707FAD9
:1023E0000CF7BA43870005FA07F73A43282904D1C6
:1023F000012787401F40676105E0482903D1012775
:1024000087401F4027612260471CB8B20828DED3EE
:10241000082022E0012787401F40E7B16268A0F151
:1024200008074FEA870C0F2707FA0CF7BA43A0F109
:102430000807BF0005FA07F73A43282904D1012706
:1024400087401F40676105E0482903D10127874085
:102450001F4027616260471CB8B21028DAD3F0BD74
:10246000FFF79FFB4FF46120FFF722FDFFF7AAFD66
:102470000020FFF781FD00240DE0002503E0164950
:102480004C55681C85B2FF2DF9DD21461248FFF737
:10249000ADFD601C84B2FF2CEFDD3220FFF786FB20
:1024A000002414E021024FF480720C48FFF7C8FDAD
:1024B000002508E00948425D05EB042108A000F072
:1024C00017FA681C85B2FF2DF4DD601C84B2FF2C66
:1024D000E8DD00BFFEE70000000000200001002052
:1024E000B5D8D6B725643D25780D0A002DE9F04111
:1024F00003460D46164600240027A04624480068DF
:1025000000F4E060B0F5A06F15D006DCB0F5407FB8
:1025100018D0B0F5806F19D110E0B0F5C06F06D0BB
:10252000B0F5E06F12D100274FF0040815E0012745
:102530004FF0030811E00227B8460EE003274FF0E2
:1025400001080AE004274FF0000806E04FF4A060FD
:1025500000F022F80227B84600BF00BFC7F1040010
:1025600005FA00F4C8F104010F20C84030400443CC
:1025700024010848C45403F01F0101208840591168
:10258000890001F1E021C1F80001BDE8F0810000FF
:102590000CED00E000E400E002490143024A116052
:1025A000704700000000FA050CED00E0034A0A4005
:1025B0000243034B1A60BFF34F8F704780FFFF1F2A
:1025C00008ED00E02DE9F04F8BB0074600200990A0
:1025D0003EA090E8004CC068CDE905BECDF810A043
:1025E00007900FF2EC0ADAE9000ACDE9020A0FF2CD
:1025F000E00ADAE9000ACDE9000A38484068C0F389
:1026000081000A900A9820B1012804D0022829D11B
:1026100003E0334928E0324926E03048406800F4BE
:102620008038B8F5803F09D12D4C2C48406800F423
:102630000039B9F5003F02D1641000E0294C274869
:102640004068C0F383422548406800F0006008B14C
:1026500042F010020F2A01D2921C00E0521C04FB2F
:1026600002F101E01E4900BF00BF1C484068C0F3F2
:10267000031504A8465D21FA06F318484068C0F324
:10268000022502A8465D23FA06FC14484068C0F300
:10269000C2251DF8056023FA06F0089037B1012F16
:1026A00006D0022F06D0032F0AD106E0099108E0D8
:1026B000099306E0CDF824C003E00898099000E0F3
:1026C00000BF00BF09980BB0BDE8F08F000000000C
:1026D0000000000001020304060708090010024080
:1026E00000127A0000093D00064A02EB90110968C9
:1026F00000F01F0301229A401143024B03EB90129A
:102700001160704700100240064A02EB9011096800
:1027100000F01F0301229A409143024B03EB9012F9
:102720001160704700100240064A02EB90110968E0
:1027300000F01F0301229A401143024B03EB901259
:102740001160704700100240016841F040010160D3
:1027500070470146C86880B27047C160704700008A
:1027600010B504461348204470B1B0F5806F14D002
:10277000B0F5784F1AD14FF44370FFF7D5FF4FF4FF
:102780004370FFF7C1FF12E040F20E40FFF7CCFFAD
:1027900040F20E40FFF7B8FF09E040F20F40FFF7AC
:1027A000C3FF40F20F40FFF7AFFF00E000BF00BFE4
:1027B00010BD000000C8FFBF02469068084008B185
:1027C000012070470020FCE702460020106800F45A
:1027D00041500B6818434B6818438B681843CB680B
:1027E00018430B6918434B6918438B6918431060F1
:1027F000D36923F40063D3617047000000200021F7
:102800002C4A126842F480322A4B1A6000BF401CE6
:10281000284A126802F4003119B94FF6FF7290424B
:10282000F5D1244A126802F400320AB900BFFEE76B
:10283000204A52681F4B5A601A4652685A601A461C
:10284000526842F480625A601A46526822F440325A
:102850005A601A46526842F440325A601A46526828
:10286000154B1A40134B5A601A465268134B1A43C1
:10287000104B5A601A46126842F080721A6000BF0C
:102880000C4A126802F00072002AF9D0094A526814
:1028900022F00302074B5A601A46526842F00202C5
:1028A0005A6000BF034A526802F00C02082AF9D1AC
:1028B0007047000000100240FFFFC3F70000280827
:1028C00010B5FFF79BFF10BD042808D14FF0E021A1
:1028D000096941F004014FF0E022116107E04FF077
:1028E000E021096921F004014FF0E02211617047F5
:1028F0000FB438B505A800901248009A0499FDF766
:10290000B7FC0020009000240DE000BF07210E4816
:1029100000F0C3F80128F9D10A48015D0A4800F027
:1029200062F8601C84B20748FDF7B4FCA042ECD802
:1029300000BF0721044800F0B0F80128F9D138BCE5
:102940005DF814FB000A0020003801402DE9F04733
:1029500004460D460027B846B94600261D49601AB0
:102960008C421CD006DC1C48204470B1B0F5806F4E
:102970001FD10FE0B0F5806F16D0B0F56C4F18D1B5
:102980000320FFF71FFE074614E00220FFF71AFEA0
:1029900007460FE00220FFF715FE07460AE0022077
:1029A000FFF710FE074605E00220FFF70BFE074683
:1029B00000E000BF00BF07EB5500B0FBF5F64FF697
:1029C000F07006EA000806F00F0948EA0900A06066
:1029D000BDE8F087004C004000BCFFBF01464868DE
:1029E000C0F308007047C1F308024260704700005E
:1029F00010B504462049601A8C4228D006DC1F48D6
:102A0000204490B1B0F5806F33D117E0B0F5806FFE
:102A100026D0B0F56C4F2CD140F20E30FFF784FE7B
:102A200040F20E30FFF770FE24E040F21140FFF755
:102A30007BFE40F21140FFF767FE1BE040F21240C0
:102A4000FFF772FE40F21240FFF75EFE12E040F226
:102A50001340FFF769FE40F21340FFF755FE09E00F
:102A600040F21440FFF760FE40F21440FFF74CFEC6
:102A700000E000BF00BF10BD004C004000BCFFBF25
:102A80000A460021416921F040011143416170472C
:102A9000C16841F40051C160704710B5024602EBB5
:102AA0009110006801F01F040123A340184008B1F1
:102AB000012010BD0020FCE710B5C1F38912825837
:102AC00001F01F040123A3401A43C1F38913C2502C
:102AD00010BD70B5024600230024C1F389101058C0
:102AE00001F01F060125B54000EA050302EB9150F5
:102AF0000068C1F304460125B54000EA050414B19D
:102B00000BB1012070BD0020FCE7C26822F4C06256
:102B1000C260C2680A43C26070470A460021C168A9
:102B200021F004011143C1607047026922F4405250
:102B3000026102690A43026170470A460021C168C6
:102B400021F008011143C1607047C26822F480522D
:102B5000C260C2680A43C2607047000010B5002915
:102B60000AD00878002807D005487844FEF7D0FB43
:102B7000002801D0002010BD0248784410BD00009C
:102B80005E0100005601000010B500290AD0087847
:102B9000002807D005487844FEF7BAFB002801D08A
:102BA000002010BD0248784410BD00004E01000016
:102BB00046010000FDF7B9BFFEF7EEB800000000C7
:102BC0000000000030313233343536373839414275
:102BD000434445464030580030313233343536377F
:102BE000383961626364656640307800040000082B
:102BF000000000000000000200010000103031322F
:102C0000333435363738396162636465667870000D
:102C10003031323334353637383941424344454612
:102C20005850000002400000000000A0000000001A
:102C300005400000000000C8000000000C4000003B
:102C40000000409C00000000194000000020BCBEB5
:102C50000000000034400000BFC91B8E00000004CB
:102C6000B5400000504BCFD06607E2CF0100000016
:102C70006C4100003E8251AADFEEA7340100000043
:102C8000D9420000DCB5A0E23A301F97FFFFFFFFFA
:102C9000B4450000FD25A0C8E9A3C14FFFFFFFFF19
:102CA000FF3F00000000008000000000FF3F000028
:102CB0000000008000000000F42D0008000000204B
:102CC000C0180000400100081C0000004300000084
:102CD000F8FFFFFF0C0000000E0000000F000000D6
:102CE0002E0000001001000043000000F8FFFFFF6D
:102CF000004040404040404040404141414141400F
:102D000040404040404040404040404040404040C3
:102D10004005020202020202020202020202020252
:102D20000220202020202020202020020202020257
:102D300002029090909090901010101010101010AF
:102D400010101010101010101010101002020202BB
:102D500002028888888888880808080808080808FF
:102D600008080808080808080808080802020202FB
:102D70004000000000000000000000000000000013
:102D80000000000000000000000000000000000043
:102D90000000000000000000000000000000000033
:102DA0000000000000000000000000000000000023
:102DB0000000000000000000000000000000000013
:102DC0000000000000000000000000000000000003
:102DD00000000000000000000000000000000000F3
:102DE00000000000000000000000000000000000E3
:042DF00000000000DF
:0400000508000105E9
:00000001FF
